:020000040800F2
:10000000002000207D210008110B0008150B0008BE
:10001000170B0008190B00081B0B0008000000005C
:100020000000000000000000000000001D0B0008A0
:100030001F0B000800000000210B0008250B000822
:10004000CD210008CD210008CD210008CD210008D8
:10005000CD210008CD210008CD210008CD210008C8
:10006000CD210008CD210008CD210008CD210008B8
:10007000CD210008CD210008CD210008CD210008A8
:10008000CD210008CD210008550B0008000000001C
:10009000000000000000000000000000CD2100086A
:1000A000CD210008CD210008CD210008CD21000878
:1000B000CD210008CD210008CD210008CD21000868
:1000C000CD2100080000000000000000CD21000844
:1000D000CD210008CD210008610B0008CD210008CA
:1000E000CD210008CD210008CD210008000000002E
:1000F0000000000000000000000000000000000000
:1001000000000000000000000000000000000000EF
:100110000000000000000000CD210008CD210008F3
:1001200000000000000000000000000000000000CF
:1001300000000000000000000000000000000000BF
:1001400000000000000000000000000000000000AF
:10015000000000000000000000000000000000009F
:10016000000000000000000000000000000000008F
:10017000000000000000000000000000000000007F
:10018000000000000000000000000000000000006F
:10019000000000000000000000000000000000005F
:1001A000000000000000000000000000000000004F
:1001B000000000000000000000000000000000003F
:1001C0000000000000000000000000005FF808F1DF
:1001D00010B5054C237833B9044B13B10448AFF381
:1001E00000800123237010BD0800002000000000E3
:1001F0001C22000808B5034B1BB103480349AFF3A9
:10020000008008BD000000001C2200080C00002037
:10021000704770471420704710B52A4C204600F0F4
:100220009AF814F8023C032B4BD8DFE803F0020DD8
:100230001B320020014600F083F90120002100F06C
:100240007FF90220002109E00020012100F078F967
:100250000120014600F074F902200121BDE81040A0
:1002600000F06EB9174C204600F07AF848B3002031
:10027000014600F065F90120002100F061F902203B
:10028000002100F05DF92046192100F062F80323F7
:1002900015E00C4C204600F063F890B100200121DD
:1002A00000F04EF90120014600F04AF90220012138
:1002B00000F046F92046192100F04BF8022304F81B
:1002C000023C10BD3200002010B50020012100F0DA
:1002D00037F901200146074C00F032F902200121D4
:1002E00000F02EF92046192100F033F8022304F81B
:1002F000023C10BD32000020014B00221A707047F2
:1003000030000020014B01221A707047300000209D
:10031000014B1870704700BF00000020014B187897
:10032000704700BF000000208180C18002804280B1
:10033000704743888B4201D0C38802E083880BB1A9
:10034000013B8380838803B9018041807047008826
:1003500070470180704703880BB1013B03807047F1
:100360000088D0F1010038BF0020704738B5134C29
:1003700063880BB1013B6380627811484FF40051F0
:1003800002B1012201F04AFC24780C4D44B16A8884
:100390009AB90B484FF48041BDE8384001F03EBCAB
:1003A00007484FF48041224601F038FC04484FF4DE
:1003B0000041224601F032FC6C8038BD3400002040
:1003C000000C014038B50D4D00240D4B2846224647
:1003D0004FF400511C705C705C8001F01FFC2846DB
:1003E00022464FF4804101F019FC284622464FF482
:1003F0000041BDE8384001F011BC00BF000C0140D5
:1004000034000020704725207047000010B53A4C9A
:100410002046FFF7A0FF14F8023C042B6AD8DFE85F
:1004200003F003340A434A00FFF778FF334A1070A1
:1004300000285AD057E0FFF7E6FFC0B200F0BCFA40
:10044000002000F035FB01280AD1FFF75BFF2A48A6
:100450004FF49671FFF77DFF012304F8023C09E099
:10046000012000F025FB0128EFD0022000F020FB46
:100470000128EAD0022000F01BFB0328044639D1F2
:10048000FFF722FF1E4B1C7010BD1B4CFFF7C2FE76
:1004900000F092FA2046FFF763FF58B3FFF72CFFF6
:1004A000022304F8023C10BD022000F001FB0128E9
:1004B00020D104221CE0022000F0FAFA032809D11E
:1004C000FFF720FF0C484FF49671FFF742FF01231E
:1004D00004F8023C022000F0EBFA01280AD10320C4
:1004E000FFF716FF0320FFF794FEFFF705FF022238
:1004F000034B1A7010BD00BF3A000020010000201D
:100500003800002010B50C4C0C482278202102B194
:10051000012201F083FB62780848102102B1012218
:1005200001F07CFBA2780548082102B10122BDE858
:10053000104001F073BB00BF3C000020000C0140E4
:10054000012806D002D3022806D07047044B197048
:100550007047034B59707047014B9970704700BF4B
:100560003C00002010B5144C4FF48051204601226D
:1005700001F054FB20462021012201F04FFB2046D0
:100580000221012201F04AFB20464021012201F014
:1005900045FB20461021002201F040FB20464FF48D
:1005A0008071012201F03AFB20464FF400610122E4
:1005B000BDE8104001F032BB0008014010B5144CFA
:1005C0004FF480512046012201F028FB20462021D3
:1005D000012201F023FB20460221012201F01EFB33
:1005E00020464021012201F019FB20461021012262
:1005F00001F014FB20464FF48071012201F00EFB44
:1006000020464FF400610122BDE8104001F006BB16
:100610000008014010B5144C4FF4805120460122CF
:1006200001F0FCFA20462021012201F0F7FA2046D1
:100630000221012201F0F2FA20464021002201F0BD
:10064000EDFA20461021002201F0E8FA20464FF48E
:100650008071002201F0E2FA20464FF4006100228E
:10066000BDE8104001F0DABA0008014010B5144CA2
:100670004FF480512046012201F0D0FA204620217B
:10068000002201F0CBFA20460221012201F0C6FA35
:1006900020464021012201F0C1FA2046102101220A
:1006A00001F0BCFA20464FF48071012201F0B6FA45
:1006B00020464FF400610122BDE8104001F0AEBABF
:1006C0000008014010B5144C4FF48051204601221F
:1006D00001F0A4FA20462021002201F09FFA2046D2
:1006E0000221012201F09AFA20464021012201F064
:1006F00095FA20461021002201F090FA20464FF48E
:100700008071012201F08AFA20464FF40061012233
:10071000BDE8104001F082BA0008014010B5144C49
:100720004FF480512046002201F078FA2046202123
:10073000012201F073FA20460221012201F06EFA33
:1007400020464021002201F069FA204610210022B3
:1007500001F064FA20464FF48071012201F05EFA44
:1007600020464FF400610122BDE8104001F056BA66
:100770000008014010B5144C4FF48051204601226E
:1007800001F04CFA20462021012201F047FA2046D0
:100790000221012201F042FA20464021012201F00B
:1007A0003DFA20461021002201F038FA20464FF48D
:1007B0008071002201F032FA20464FF400610122DC
:1007C000BDE8104001F02ABA0008014010B5144CF1
:1007D0004FF480512046012201F020FA20462021CA
:1007E000012201F01BFA20460221002201F016FA34
:1007F00020464021012201F011FA20461021012259
:1008000001F00CFA20464FF48071002201F006FA44
:1008100020464FF400610122BDE8104001F0FEB90E
:100820000008014010B5144C4FF4805120460022BE
:1008300001F0F4F920462021012201F0EFF92046D1
:100840000221012201F0EAF920464021002201F0B4
:10085000E5F920461021002201F0E0F920464FF48E
:100860008071002201F0DAF920464FF40061002285
:10087000BDE8104001F0D2B90008014010B5144C99
:100880004FF480512046012201F0C8F92046202172
:10089000012201F0C3F920460221012201F0BEF934
:1008A00020464021012201F0B9F920461021012201
:1008B00001F0B4F920464FF48071012201F0AEF945
:1008C00020464FF400610022BDE8104001F0A6B9B7
:1008D00000080140F8B5184B184C1D782778632D97
:1008E00028BF6325164E1748802187B1002201F0EA
:1008F00095F914484FF48061012201F08FF90A2321
:10090000B5FBF3F556F825309847002312E0012295
:1009100001F084F90B484FF480613A4601F07EF90A
:100920000A23B5FBF3F203FB1253DBB256F8233074
:10093000984701232370F8BD2400002025000020E3
:10094000542200080008014010B51A4C80212046AE
:10095000012201F063F920464FF48061012201F089
:100960005DF920464FF48051002201F057F92046EE
:100970002021002201F052F920460221002201F03C
:100980004DF920464021002201F048F9204610216F
:10099000002201F043F920464FF48071002201F05B
:1009A0003DF920464FF400610022BDE8104001F0FF
:1009B00035B900BF00080140014B1870704700BFF7
:1009C0002400002038B5144D4FF40071284601F082
:1009D0001FF9124CD0F1010138BF00212046FFF76A
:1009E000A8FC28464FF4807101F012F9D0F1010102
:1009F00038BF002104F10C00FFF79BFC2846802142
:100A000001F006F9D0F1010138BF002104F118000E
:100A1000BDE83840FFF78DBC000C014040000020CD
:100A2000F8B50D4B00221A701F4638780A4C022880
:100A300010D80A4D0C2606FB005000220421FFF7B7
:100A400073FC2378002206FB035501332A726A8166
:100A50002370EAE7F8BD00BF260000204000002018
:100A600070B5124C04F12406002520462572FFF7CC
:100A70006EFC638990B101339BB21422B3FBF2F197
:100A8000638102FB11339BB20BB90223237263898A
:100A9000B3F5967F06D10323237203E00BB1012344
:100AA000237265810C34B442DED170BD4000002059
:100AB000024B0C2202FB0030007A704740000020FD
:100AC000104B1A6842F001021A6059680E4A0A4037
:100AD0005A601A6822F0847222F480321A601A680E
:100AE00022F480221A605A6822F4FE025A604FF4FF
:100AF0001F029A600022DA62044B4FF000629A6093
:100B0000704700BF001002400000FFF800ED00E059
:100B100000F0ACBFFEE7FEE7FEE7FEE77047704778
:100B20007047000008B5094B1A88013292B20A2AB0
:100B300001D01A8004E000221A80054B01221A70AD
:100B400001F000FBBDE8084001F0DFB828000020FC
:100B50002A000020014801F0DFB800BF6400002037
:100B6000014800F098BA00BFA8000020204B07B54C
:100B70009A69032042F001029A619B6903F0010324
:100B80000193019B01F04EF800210A466FF00B0023
:100B900001F05AF800210A466FF00A0001F054F8FB
:100BA00000210A466FF0090001F04EF800210A46C4
:100BB0006FF0040001F048F800210A466FF00300CE
:100BC00001F042F800210A466FF0010001F03CF804
:100BD00000210A464FF0FF3001F036F8054B5A6805
:100BE00022F0E06242F000725A6003B05DF804FB4C
:100BF00000100240000001407FB50268104B9A428D
:100C00001AD103F56C439A690E4842F400729A6156
:100C10009B6902A903F400730193019B01230293D2
:100C20000323039300F032FF002112200A4601F053
:100C30000BF8122001F03AF807B05DF804FB00BF92
:100C400000240140000C014010B50268164B86B02C
:100C50009A4226D103F5E633DA69144842F40032A9
:100C6000DA61DB6902A903F400330193019B0423D9
:100C70000293022303930323059300F007FF082345
:100C800000240DEB0301094802930394049400F03F
:100C9000FDFE26202146224600F0D6FF262001F048
:100CA00005F806B010BD00BF004400400008014038
:100CB0000268084B82B09A420AD103F5F233DA692E
:100CC00042F40062DA61DB6903F400630193019B83
:100CD00002B07047002C004010B54FF4803392B042
:100CE00001220993109302244FF4802308A808924C
:100CF0000A920F94119300F015FB014600B1FEE734
:100D00000F2305900690079003A80393049400F026
:100D1000DDFD00B1FEE702906846009400F07EFA27
:100D2000044600B1FEE700F06BFD00F067FE4FF4F3
:100D30007A73B0FBF3F000F0C5FF042000F0D8FF99
:100D40004FF0FF302146224600F07EFF12B010BD6A
:100D500070B588B001F0EAF9FFF7BEFF4E4B4F487F
:100D60009A6941F6F25142F020029A619A6901268D
:100D700002F020020192019A9A69022442F00402D0
:100D80009A619A69002502F004020292029A9A6915
:100D900042F008029A619B69002203F00803039362
:100DA000039B00F03BFF00223D484EF2380100F06B
:100DB00035FF41F6F253394804A904930794059688
:100DC00000F064FE4FF4F063354804A904930595E0
:100DD000069500F05BFE4EF23803314804A90493F7
:100DE000079405962F4C00F051FE2F4B20462360B0
:100DF0004FF46023A560E5606561E361656026618D
:100E000001F0EEF800B1FEE70823069004A92046A1
:100E10000493059600F0F6FF00B1FEE7234B24494A
:100E20004FF4165283E806009860D86018610C22CF
:100E30009861D86118465A6100F0FEF800B1FEE7EB
:100E40001C4B1D4A58601A60184640229A60DA60AE
:100E500000F036F800B1FEE7FFF7B4FAFFF7E0FD67
:100E6000FFF772FD154C2378002BFBD0FFF7CAFA71
:100E7000FFF7A8FDFFF7F4FDFFF7C8FAFFF7CCF97D
:100E8000FFF7C6F9FFF726FDFFF770FAFFF73AFB09
:100E900000232370E6E700BF001002400008014075
:100EA000000C01406400002000240140A800002044
:100EB0000044004094000020002C00402A00002044
:100EC00010B50446E8B1437C03F0FF0213B9027485
:100ED000FFF7EEFE022363742368A0685A68616816
:100EE00022F4FF72014322F001020A435A6019689A
:100EF000E26821F07F010A431A6001236374002035
:100F000010BD012010BD00002DE9F0470668C36840
:100F10003269016922F44052134333618268F368F5
:100F20001143426923F4B0530A4323F00C031343E3
:100F3000F3607269836922F44072134373613D4B1D
:100F400004469E424FF019052FD100F075FD68430D
:100F5000636864279B00B0FBF3F800F06DFD684305
:100F60006368B8FBF7F89B00B0FBF3F900F064FD91
:100F7000684363684FEA08189B00B0FBF3F3B3FBC8
:100F8000F7F307FB139900F057FD684363684FEAD6
:100F9000091909F13209B9FBF7F99B0009F0F009C9
:100FA000B0FBF3FA00F048FD2EE000F02DFD6843A1
:100FB000636864279B00B0FBF3F800F025FD6843ED
:100FC0006368B8FBF7F89B00B0FBF3F900F01CFD79
:100FD000684363684FEA08189B00B0FBF3F3B3FB68
:100FE000F7F307FB139900F00FFD68434FEA091967
:100FF000636809F13209B9FBF7F99B0009F0F009C0
:10100000B0FBF3FA00F000FD684363689B00B0FB9F
:10101000F3F5B5FBF7F507FB15AA4FEA0A1A0AF133
:10102000320ABAFBF7F707F00F074F444744B7609F
:10103000BDE8F0870038014010B5044630B390F8A1
:10104000393003F0FF021BB980F83820FFF7FCFDB0
:10105000022384F8393023682046DA6822F40052EB
:10106000DA60FFF751FF236800201A6922F49042EA
:101070001A615A6922F02A025A61DA6842F400526F
:10108000DA600123E06384F8393010BD012010BD1F
:10109000704770477047036813B519680446C9075D
:1010A000DA6805D5D20503D5C26B42F00102C263EE
:1010B00019685A69880702F0010204D51AB1E16B78
:1010C00041F00401E1631968490704D51AB1E16BE5
:1010D00041F00201E1631968080704D51AB1E26B17
:1010E00042F00802E2631968DA68890642D5900680
:1010F00040D594F8392002F0EF02222A3AD1A268B2
:101100002169B2F5805FA26A0BD15B6821B9C3F394
:10111000080322F8023B02E0DBB222F8013BA262A4
:101120000AE019B9511CA1625B6804E05B68511CBC
:10113000A16203F07F031370E38D013B9BB2E38553
:10114000C3B92368DA6822F02002DA6094F8392003
:10115000322A01D1122308E0DA6822F48072DA60C0
:101160005A6922F001025A61012384F8393020467D
:10117000FFF78FFF23681968DA68090628D510067B
:1011800026D594F8392002F0DF02122A20D1A26875
:10119000B2F5805F226A0AD11188C1F30801596053
:1011A000216909B9023200E00132226203E0511CD8
:1011B000216212785A60E28C013A92B2E2843AB922
:1011C000DA6822F08002DA60DA6842F04002DA601F
:1011D0001968DA68490610D552060ED5DA68204635
:1011E00022F04002DA6094F83930322B0CBF22230F
:1011F000012384F83930FFF74BFFE36B5BB12368C1
:1012000020461A6801925B680193019B012384F8D0
:101210003930FFF73FFF02B010BD0000036873B51F
:101220000546D8076AD53C4CE36943F08053E36137
:10123000E36903F080530193019B384B1A6842F431
:1012400080721A6000F086FF0646344B1B68D90591
:1012500006D400F07FFF801B6428F6D9032059E0F4
:10126000236A13F4407306D1226A6B6822F4407239
:101270001343236242E06A6802F440729342F3D05F
:10128000254B4FF480301B6A23F4407290FAA0F093
:101290002349B0FA80F0012641F820604FF48030F5
:1012A00090FAA0F00026B0FA80F041F820602262A7
:1012B000DA07D9D500F04EFF0646022393FAA3F3CE
:1012C000022393FAA3F3B3FA83F343F040035B09D9
:1012D000022B0CBF236A636A022292FAA2F2B2FACC
:1012E00082F202F01F02D340DB07BDD400F032FFD0
:1012F00041F28833801B9842DFD9AFE7286810F0AD
:10130000020007D0044BA9685A68002022F440422A
:101310000A435A6002B070BD0010024000700040E5
:1013200000044242036873B5DA07054603D42B680C
:101330009B0779D4EFE0B24C636803F00C03042BF5
:1013400007D0636803F00C03082B18D16368DE0331
:1013500015D54FF4003393FAA3F34FF4003322680A
:1013600093FAA3F3B3FA83F303F01F0322FA03F310
:10137000D807DCD56B68002BD9D101203CE26B6823
:10138000B3F5803F13D05BB9236823F48033236027
:10139000236823F48023236000F0DCFE064631E05E
:1013A000B3F5A02F236806D143F48023236023687C
:1013B00043F4803305E023F480332360236823F46F
:1013C0008023236000F0C6FE06464FF4003393FAF4
:1013D000A3F34FF40033226893FAA3F3B3FA83F331
:1013E00003F01F0322FA03F3D907A0D400F0B2FEE2
:1013F000801B6428E9D90320FEE100F0ABFE801BCE
:101400006428F8D84FF4003393FAA3F34FF4003371
:10141000226893FAA3F3B3FA83F303F01F0322FACB
:1014200003F3DA07E9D482E7754C636813F00C0F15
:1014300007D0636803F00C03082B15D16368DB0346
:1014400012D4022393FAA3F30223226893FAA3F39C
:10145000B3FA83F303F01F0322FA03F3DE0729D55F
:101460002B69012B89D125E02A69012382B393FAE4
:10147000A3F3B3FA83F39B0003F1844303F58403DE
:1014800001221A6000F066FE0646022393FAA3F3D7
:101490000223226893FAA3F3B3FA83F303F01F0342
:1014A00022FA03F3D80705D400F054FE801B02286B
:1014B000EBD9A0E72268F82191FAA1F16B69B1FAA2
:1014C00081F18B4022F0F80213434D4A136022E071
:1014D00093FAA3F3B3FA83F39B0003F1844303F578
:1014E000840300221A6000F035FE0646022393FAB8
:1014F000A3F30223226893FAA3F3B3FA83F303F06E
:101500001F0322FA03F3D90705D500F023FE801B41
:101510000228EBD96FE72B681A074CD5A969384C1C
:101520000122384B29B392FAA2F20121B2FA82F2D7
:1015300043F8221000F00EFE0646022393FAA3F3AE
:10154000022393FAA3F30223626A93FAA3F3B3FA92
:1015500083F303F01F0322FA03F3DB0705D400F043
:10156000F9FD801B0228E8D945E7012000F0F8FDCD
:1015700021E092FAA2F20021B2FA82F243F822109C
:1015800000F0E8FD0646022393FAA3F3022393FA40
:10159000A3F30223626A93FAA3F3B3FA83F303F08B
:1015A0001F0322FA03F3D80705D500F0D3FD801BF3
:1015B0000228E8D91FE72B68590704D4EB69002BF0
:1015C00040F08B80E5E00E4CE36943F08053E3612B
:1015D000E36903F080530193019B0B4B1A6842F4BB
:1015E00080721A6000F0B6FD0646074B1B68DA05EC
:1015F0000CD400F0AFFD801B6428F6D9FBE600BFD9
:10160000001002408004424200700040EB68012B51
:1016100012D05BB9236A23F001032362236A23F00B
:101620000403236200F096FD06463CE0052B236A86
:1016300006D143F004032362236A43F0010305E06B
:1016400023F001032362236A23F00403236200F0E2
:1016500081FD0646022393FAA3F3022393FAA3F330
:10166000B3FA83F343F040035B09022B0CBF236AF8
:10167000636A022292FAA2F2B2FA82F202F01F0226
:10168000D340DB079AD400F065FD41F28833801B1C
:101690009842DFD9AFE600F05DFD41F28833801B50
:1016A00098423FF6A8AE022393FAA3F3022393FADB
:1016B000A3F3B3FA83F343F040035B09022B0CBF9F
:1016C000236A636A022292FAA2F2B2FA82F202F06A
:1016D0001F02D340D807DED470E7484C626802F09E
:1016E0000C02082A3FF449AE022B4FF080735ED102
:1016F00093FAA3F3B3FA83F39B0003F1844303F556
:10170000840300221A6000F025FD06464FF00073A6
:1017100093FAA3F34FF00073226893FAA3F3B3FA9A
:1017200083F303F01F0322FA03F3D90733D42B6AA0
:10173000B3F5803F05D1E16AAA6821F00F010A43A1
:10174000E2626268696A22F474120B4313436360B5
:101750004FF0807393FAA3F3B3FA83F39B0003F182
:10176000844303F5840301221A6000F0F3FC05466C
:101770004FF0007393FAA3F34FF00073226893FACB
:10178000A3F3B3FA83F303F01F0322FA03F3DA0798
:1017900007D5002030E000F0DDFC801B0228B5D921
:1017A00029E600F0D7FC401B0228E1D923E693FA92
:1017B000A3F3B3FA83F39B0003F1844303F584039B
:1017C00000221A6000F0C6FC05464FF0007393FA41
:1017D000A3F34FF00073226893FAA3F3B3FA83F3F1
:1017E00003F01F0322FA03F3DB07D2D500F0B2FCAB
:1017F000401B0228E9D9FEE502B070BD001002408E
:101800004FF4002393FAA3F3B3FA83F39B0003F19D
:10181000844303F5840301221A60704730B5254BD9
:1018200089B06C4603F1100518685968224603C256
:101830000833AB421446F7D11F4B04AC03F110053B
:1018400018685968224603C20833AB421446F7D1E0
:101850001A494B6803F00C02042A02D0082A02D06D
:1018600025E0174824E04FF4701292FAA2F203F434
:101870007010B2FA82F220FA02F208A80244DB03E6
:1018800012F8202C10D5CB6A0F2191FAA1F1B1FAF0
:1018900081F103F00F03CB4008A90B4413F8103C6F
:1018A0000748B0FBF3F000E00648504300E006486C
:1018B00009B030BD34220008442200080010024064
:1018C0000024F40000093D0000127A00036870B59E
:1018D00013F0020F0546464C05D06168826821F07E
:1018E000F0010A436260D80709D42B6859075FD515
:1018F0006168EA6821F4E0610A43626058E06B685D
:10190000012B07D14FF4003292FAA2F24FF40032C9
:1019100021680EE0022B07D14FF0007292FAA2F27A
:101920004FF00072216804E0022292FAA2F22168CC
:10193000022292FAA2F2B2FA82F202F01F0221FA15
:1019400002F2D20752D5626822F0030213436360A9
:1019500000F000FC6B680646012B0DD1636803F0B4
:101960000C03042BC1D000F0F5FB41F28833801B3F
:101970009842F3D9032070BD022B0BD0636813F09B
:101980000C0F0DD1B1E700F0E5FB41F28833801B6D
:101990009842EFD8636803F00C03082BF3D1A4E757
:1019A00000F0D8FB41F28833801B9842E6D9E1E78A
:1019B0001B0706D563682A6923F4605343EAC20310
:1019C0006360FFF72BFF6368F02292FAA2F2B2FA8B
:1019D00082F203F0F003D340064AD35CD840064BB2
:1019E0001860002000F090FB002070BD012070BD49
:1019F000001002407C22000804000020014B1868FF
:101A0000704700BF04000020084B4FF4E0625B68A1
:101A100092FAA2F2B2FA82F203F4E063D340044AEB
:101A2000D35C044A1068D840704700BF00100240E1
:101A30008C22000804000020084B4FF460525B68C1
:101A400092FAA2F2B2FA82F203F46053D340044A4B
:101A5000D35C044A1068D840704700BF00100240B1
:101A60008C220008040000207047000008B5054BD8
:101A70009B681B0604D5FFF7F7FF034B80221A7003
:101A800008BD00BF001002400A1002402DE9F341DA
:101A9000002425460123AB400A681A409A4240F0D0
:101AA000A5804B68122B29D00ED8022B23D004D846
:101AB0003BB3012B30D1CC682EE0032B29D0112B66
:101AC0002AD1CC68043427E04C4EB34219D006D852
:101AD000A6F58016B34214D006F5803608E0484ECD
:101AE000B3420ED006F58036B3420AD0A6F5801672
:101AF000B34211D105E0CC6808340DE0CC680C3459
:101B00000AE08B683BB1012B0CBF026142610824E3
:101B100002E0002400E00424FF2A02D80346AE00BD
:101B200003E0A5F10806031DB6004FF00F0808FA00
:101B300006FC04FA06F61F6827EA0C073E431E60FF
:101B40004E68F30052D505F0030C4FEA8C0C08FAEE
:101B50000CF82C4B9F6947F001079F619B6903F0CC
:101B600001030193019B25F0030303F1804303F577
:101B700080339F6827EA0808234FB8420ED007F544
:101B80008067B8420CD007F58067B8420AD007F5E5
:101B90008067B84214BF0427032704E0002702E04F
:101BA000012700E0022707FA0CF747EA08079F60C1
:101BB000164B16F4803F1F6814BF174397431F60EE
:101BC0005F6816F4003F14BF174397435F609F6838
:101BD00016F4801F14BF174397439F6016F4001F2D
:101BE000DE6814BF324326EA0202DA600135102DA6
:101BF0007FF450AF02B0BDE8F08100BF00002110BB
:101C000000003110001002400008014000040140B3
:101C1000836819420CBF00200120704702B90904F3
:101C200001617047074A00F00700D36823F4E063BE
:101C30001B041B0C43F0BF6343F4003343EA00234F
:101C4000D360704700ED00E0164B70B5DB68C3F35E
:101C500002231D1DC3F10704042C28BF0424062DF4
:101C60004FF0010505FA04F48CBF033B002305FA8D
:101C700003F6013C214001FA03F3013E32401343D5
:101C800000284FEA031305DADAB2074B00F00F0021
:101C90001A5470BD00F16040DBB200F5614080F87D
:101CA000003370BD00ED00E014ED00E042090123B7
:101CB00000F01F0003FA00F0014B43F822007047C8
:101CC00000E100E00138B0F1807F0AD2064B074AFC
:101CD000F021586082F823100020072298601A60D3
:101CE00070470120704700BF10E000E000ED00E009
:101CF000044B04281A680CBF42F0040222F00402CC
:101D00001A60704710E000E0704708B5FFF7FCFF6D
:101D100008BD704770477047036810B55A6804469D
:101D2000900627D51A68910724D5A26AD20603D453
:101D3000A26A42F40072A2629A6802F46022B2F5CA
:101D4000602F10D1E26872B95A6822F020025A60FE
:101D5000A36A23F48073A362A36ADB0403D4A36A97
:101D600043F00103A3622046FFF7D4FF23686FF01E
:101D700012021A6023685A68100630D51A68510793
:101D80002DD5A26AD20603D4A26A42F40052A262FE
:101D90009A6802F4E042B2F5E04F0AD05A68500562
:101DA00016D49A6802F46022B2F5602F10D1E2686E
:101DB00072B95A6822F080025A60A36A23F48053F1
:101DC000A362A36AD90503D4A36A43F00103A36203
:101DD0002046FFF79EFF23686FF00C021A6023680D
:101DE0005A6852060DD51B68DB070AD5A36A204640
:101DF00043F48033A362FFF78EFF23686FF0010284
:101E00001A6010BD2DE9F3410023019390F82430AE
:101E1000012B00F0B8804C680123062C80F8243098
:101E20000A6803681BD85E6B4FF4787C9CFAACFCA4
:101E30004FF47877BCFA8CFC013C97FAA7F704FBC7
:101E40000CFCB7FA87F77C434FF01F0808FA0CFC2C
:101E500002FA04F426EA0C0634435C6336E00C2CE8
:101E60004FF4787519D8D3F830C095FAA5F54FF42A
:101E70007877B5FA85F5073C97FAA7F76543B7FA7F
:101E800087F77C434FF01F0808FA05F502FA04F4BF
:101E90002CEA05052C431C6318E0D3F82CC095FAF6
:101EA000A5F54FF47877B5FA85F50D3C97FAA7F7C5
:101EB0006543B7FA87F77C434FF01F0808FA05F52A
:101EC00002FA04F42CEA05052C43DC62092A4FF0DF
:101ED0003804896818D9D3F80CC094FAA4F43827C8
:101EE000B4FA84F4A2F10A0597FAA7F76C43B7FA9B
:101EF00087F77D434FF0070808FA04F4A9402CEA5D
:101F000004042143D96014E01F6994FAA4F438262C
:101F1000B4FA84F496FAA6F6B6FA86F65443564313
:101F20004FF0070C0CFA04F4B14027EA04042143F3
:101F30001961A2F11001012901D900231EE0144901
:101F40008B4216D199680902F7D49968102A41F496
:101F500000019960F1D10F4B1A680F4BB2FBF3F3FC
:101F60000A2253430193019B002BE6D0019B013BC6
:101F7000F8E7836A43F0200383620123002280F89C
:101F80002420184600E0022002B0BDE8F08100BF26
:101F9000002401400400002040420F0038B50368CF
:101FA00004469A68D20701D4002038BD9A6822F00E
:101FB00001029A6000F0CEF8054623689B68DB07B3
:101FC000F2D500F0C7F8401B0228F6D9A36A012019
:101FD00043F01003A362E36A43F00103E36238BDF8
:101FE00038B50446002800F08980836A23B9C362AB
:101FF00080F82430FEF700FE2046FFF7CFFFA36AEB
:1020000013F0100FA36A76D1002874D123F48853FB
:1020100023F0020343F00203A3620225E36895FA6A
:10202000A5F5B5FA85F503FA05F5E16962680A4395
:1020300042EA0500A268B2F5807F05D0012A14BFEC
:1020400000214FF4807100E011466569012D15D122
:1020500063B94FF4604595FAA5F5A369B5FA85F51E
:10206000013BAB4041F40061194307E0A36A43F030
:102070002003A362E36A43F00103E3622368B2F53D
:10208000807F5D6825F4694541EA050159609D68D6
:102090001B4905EA010140EA0101996001D0012ACA
:1020A0000AD14FF4700292FAA2F22169B2FA82F2D6
:1020B000013901FA02F200E00022D96A21F470012C
:1020C0000A43DA629A680F4B1340834208D100201A
:1020D000E062A36A23F0030343F00103A36238BD67
:1020E000A36A23F0120343F01003A362E36A43F0F0
:1020F0000103E36202E043F01003A362012038BD54
:10210000FDF7E1FFFE0E1FFF10B50446FFF776FC5A
:102110004FF47A73B0FBF3F0FFF7D4FD4FF0FF30CC
:1021200021460022FFF790FD002010BD08B50320D6
:10213000FFF778FD0020FFF7E7FFFEF717FD00200F
:1021400008BD0000024B1A6801321A60704700BFD8
:102150002C000020014B1868704700BF2C000020A5
:1021600013B50190FFF7F6FF0446FFF7F3FF019B5D
:10217000001B9842F9D302B010BD0000002100F00E
:1021800004B80D4B5B58435004310C480C4B4218BB
:102190009A42FFF4F6AF0B4A00F003B8002342F86E
:1021A000043B094B9A42FFF4F9AFFEF789FC00F0BB
:1021B0000FF8FEF7CDFD70479C22000800000020BC
:1021C0000800002008000020E8000020FFF7FEBF04
:1021D00070B50E4B0E4D0024ED1AAD101E46AC42EC
:1021E00004D056F8242090470134F8E700F016F8A0
:1021F000084D094B0024ED1AAD101E46AC4204D028
:1022000056F8242090470134F8E770BD9422000866
:10221000942200089822000894220008F8B500BF14
:10222000F8BC08BC9E467047F8B500BFF8BC08BCB7
:042230009E4670470F
:1022340002030405060708090A0B0C0D0E0F101003
:102244000102030405060708090A0B0C0D0E0F1002
:102254007D08000825080008CD0700087507000858
:102264001D070008C50600086D06000815060008CD
:10227400BD0500086505000800000000000000001E
:102284000102030406070809000000000102030418
:04229400F501000848
:04229800D101000868
:08229C006363000000366E01CF
:040000050800217D51
:00000001FF
