:020000040800F2
:100000000020002029250008690C00086D0C00085C
:100010006F0C0008710C0008730C00080000000051
:10002000000000000000000000000000750C000847
:10003000770C000800000000790C00087D0C000817
:100040007925000879250008792500087925000818
:100050007925000879250008792500087925000808
:1000600079250008792500087925000879250008F8
:1000700079250008792500087925000879250008E8
:100080007925000879250008AD0C00080000000063
:1000900000000000000000000000000079250008BA
:1000A00079250008792500087925000879250008B8
:1000B00079250008792500087925000879250008A8
:1000C00079250008000000000000000079250008E4
:1000D0007925000879250008B90C00087925000861
:1000E000792500087925000879250008000000001E
:1000F0000000000000000000000000000000000000
:1001000000000000000000000000000000000000EF
:100110000000000000000000792500087925000893
:1001200000000000000000000000000000000000CF
:1001300000000000000000000000000000000000BF
:1001400000000000000000000000000000000000AF
:10015000000000000000000000000000000000009F
:10016000000000000000000000000000000000008F
:10017000000000000000000000000000000000007F
:10018000000000000000000000000000000000006F
:10019000000000000000000000000000000000005F
:1001A000000000000000000000000000000000004F
:1001B000000000000000000000000000000000003F
:1001C0000000000000000000000000005FF808F1DF
:1001D00010B5054C237833B9044B13B10448AFF381
:1001E00000800123237010BD2000002000000000CB
:1001F000C825000808B5034B1BB103480349AFF3FA
:10020000008008BD00000000C82500082400002070
:10021000D0400B1CD1409C46203AD3401843524258
:10022000634693401843704770470000014B1880A5
:10023000704700BF3C000020014B1888704700BF8A
:100240003C00002008B5104800F0F9F8002000F04C
:10025000DBFC28B10C484FF47A7100F0EEF809E0AD
:10026000012000F0D1FC0028F4D1022000F0CCFCE9
:100270000028EFD1044800F0E7F8BDE8084080F01E
:100280000100C0B200F032B93E00002010B52A4C87
:10029000204600F0D4F814F8023C032B4BD8DFE8DA
:1002A00003F0020D1B320020014600F0F5F9012099
:1002B000002100F0F1F90220002109E000200121D5
:1002C00000F0EAF90120014600F0E6F902200121E0
:1002D000BDE8104000F0E0B9174C204600F0B4F83B
:1002E00048B30020014600F0D7F90120002100F0BA
:1002F000D3F90220002100F0CFF92046192100F0A7
:100300009CF8032315E00C4C204600F09DF890B1BA
:100310000020012100F0C0F90120014600F0BCF9E5
:100320000220012100F0B8F92046192100F085F8DB
:10033000022304F8023C10BD4E00002010B500203E
:10034000012100F0A9F901200146074C00F0A4F9B1
:100350000220012100F0A0F92046192100F06DF8DB
:10036000022304F8023C10BD4E000020014B002285
:100370001A7070474C000020014B01221A70704720
:100380004C00002073B5144C0646236819884FF6BC
:10039000FF729142114D0DD1236001F08BFD236856
:1003A000AB420CD90E4801A901F00EFD0D4A0A4BD3
:1003B0001A6004E0AB42EFD833F8021FE7E7216888
:1003C000B2B20023012001F0BBFD01F085FD2368DE
:1003D0000233236002B070BD10000020FD0301084D
:1003E0000000002000000108084A138818464FF654
:1003F000FF718B4209D001F1006101F2FF318A42A5
:1004000003D0184632F8023FF1E7704700000108B8
:100410008180C18002804280704743888B4201D036
:10042000C38802E083880BB1013B8380838803B9D2
:1004300001804180704700887047018070470388C1
:100440000BB1013B038070470088D0F1010038BF39
:100450000020704738B5134C63880BB1013B6380B3
:10046000627811484FF4005102B1012201F084FC7E
:1004700024780C4D44B16A889AB90B484FF48041F6
:10048000BDE8384001F078BC07484FF4804122466F
:1004900001F072FC04484FF40041224601F06CFC6C
:1004A0006C8038BD50000020000C014038B50D4D67
:1004B00000240D4B284622464FF400511C705C70FE
:1004C0005C8001F059FC284622464FF4804101F03F
:1004D00053FC284622464FF40041BDE8384001F065
:1004E0004BBC00BF000C014050000020014B587075
:1004F000704700BF50000020704725207047000063
:1005000038B5524C2046FFF79AFF14F8023C2546B6
:10051000042B00F29A80DFE803F003370D48530004
:10052000FFF762FF4A4A10804FF6FF72904208BF01
:10053000142083E0FFF7E1FFC0B200F0E9FA0020E9
:1005400000F062FB01280AD1FFF716FF3F484FF485
:100550009671FFF772FF012305F8023C09E00120C4
:1005600000F052FB0128EFD0022000F04DFB0128E3
:10057000EAD0022000F048FB0328044665D1FFF7CB
:10058000DDFE344B1C7038BDFFF756FE2F4CC0B259
:1005900000F0BEFA2046FFF757FF002855D0FFF7BE
:1005A000E5FE022304F8023C38BD022000F02CFBDB
:1005B00001284AD1FFF740FE274B0422188042E071
:1005C000012000F021FB0128234C06D123881D2B9C
:1005D00008D8214A0133138004E0012000F014FB05
:1005E0000228F3D0002000F00FFB012806D1238859
:1005F000052B08D9184A013B138004E0002000F0C5
:1006000003FB0228F3D0207800F082FA022000F0E9
:10061000FBFA032809D1FFF7AFFE0C484FF496719F
:10062000FFF70BFF012305F8023C022000F0ECFA73
:1006300001280AD12088FFF7A5FE2088FFF7F6FDE4
:10064000FFF794FE0222034B1A7038BD56000020BB
:1006500016000020540000201400002010B50C4C9F
:100660000C482278202102B1012201F085FB62783A
:100670000848102102B1012201F07EFBA278054852
:10068000082102B10122BDE8104001F075BB00BF96
:1006900058000020000C0140012806D002D3022897
:1006A00006D07047044B19707047034B5970704760
:1006B000014B9970704700BF5800002010B5144CD2
:1006C0004FF480512046012201F056FB20462021A4
:1006D000012201F051FB20460221012201F04CFBD6
:1006E00020464021012201F047FB20461021002234
:1006F00001F042FB20464FF48071012201F03CFBE7
:1007000020464FF400610122BDE8104001F034BBE7
:100710000008014010B5144C4FF4805120460122CE
:1007200001F02AFB20462021012201F025FB204672
:100730000221012201F020FB20464021012201F08C
:100740001BFB20461021012201F016FB20464FF42E
:100750008071012201F010FB20464FF4006101225C
:10076000BDE8104001F008BB0008014010B5144C72
:100770004FF480512046012201F0FEFA204620214C
:10078000012201F0F9FA20460221012201F0F4FAD7
:1007900020464021002201F0EFFA204610210022DD
:1007A00001F0EAFA20464FF48071002201F0E4FAE9
:1007B00020464FF400610022BDE8104001F0DCBA91
:1007C0000008014010B5144C4FF48051204601221E
:1007D00001F0D2FA20462021002201F0CDFA204675
:1007E0000221012201F0C8FA20464021012201F035
:1007F000C3FA20461021012201F0BEFA20464FF430
:100800008071012201F0B8FA20464FF40061012204
:10081000BDE8104001F0B0BA0008014010B5144C1A
:100820004FF480512046012201F0A6FA20462021F3
:10083000002201F0A1FA20460221012201F09CFAD7
:1008400020464021012201F097FA20461021002283
:1008500001F092FA20464FF48071012201F08CFAE7
:1008600020464FF400610122BDE8104001F084BA37
:100870000008014010B5144C4FF48051204600226E
:1008800001F07AFA20462021012201F075FA204673
:100890000221012201F070FA20464021002201F0DD
:1008A0006BFA20461021002201F066FA20464FF430
:1008B0008071012201F060FA20464FF400610122AC
:1008C000BDE8104001F058BA0008014010B5144CC2
:1008D0004FF480512046012201F04EFA204620219B
:1008E000012201F049FA20460221012201F044FAD6
:1008F00020464021012201F03FFA2046102100222B
:1009000001F03AFA20464FF48071002201F034FAE7
:1009100020464FF400610122BDE8104001F02CBADE
:100920000008014010B5144C4FF4805120460122BC
:1009300001F022FA20462021012201F01DFA204672
:100940000221002201F018FA20464021012201F084
:1009500013FA20461021012201F00EFA20464FF42E
:100960008071002201F008FA20464FF40061012254
:10097000BDE8104001F000BA0008014010B5144C69
:100980004FF480512046002201F0F6F92046202144
:10099000012201F0F1F920460221012201F0ECF9D7
:1009A00020464021002201F0E7F9204610210022D4
:1009B00001F0E2F920464FF48071002201F0DCF9E9
:1009C00020464FF400610022BDE8104001F0D4B988
:1009D0000008014010B5144C4FF48051204601220C
:1009E00001F0CAF920462021012201F0C5F9204674
:1009F0000221012201F0C0F920464021012201F02C
:100A0000BBF920461021012201F0B6F920464FF42F
:100A10008071012201F0B0F920464FF400610022FC
:100A2000BDE8104001F0A8B900080140F8B5184B26
:100A3000184C1D782778632D28BF6325164E17485C
:100A4000802187B1002201F097F914484FF48061AA
:100A5000012201F091F90A23B5FBF3F556F8253090
:100A60009847002312E0012201F086F90B484FF469
:100A700080613A4601F080F90A23B5FBF3F203FBEB
:100A80001253DBB256F82330984701232370F8BD88
:100A9000400000204100002000260008000801401E
:100AA00010B51A4C80212046012201F065F920463C
:100AB0004FF48061012201F05FF920464FF480512C
:100AC000002201F059F920462021002201F054F9BA
:100AD00020460221002201F04FF920464021002249
:100AE00001F04AF920461021002201F045F9204684
:100AF0004FF48071002201F03FF920464FF400616D
:100B00000022BDE8104001F037B900BF00080140E5
:100B1000014B1870704700BF4000002038B5144DDD
:100B20004FF40071284601F021F9124CD0F1010177
:100B300038BF00212046FFF770FC28464FF4807133
:100B400001F014F9D0F1010138BF002104F10C00CB
:100B5000FFF763FC2846802101F008F9D0F101017C
:100B600038BF002104F11800BDE83840FFF755BC3C
:100B7000000C01405C000020F8B50D4B00221A70FB
:100B80001F4638780A4C022810D80A4D0C2606FB5E
:100B9000005000220421FFF73BFC2378002206FBD3
:100BA000035501332A726A812370EAE7F8BD00BF5A
:100BB000420000205C00002070B5124C04F12406B5
:100BC000002520462572FFF736FC638990B101337A
:100BD0009BB21422B3FBF2F1638102FB11339BB28F
:100BE0000BB9022323726389B3F5967F06D10323E1
:100BF000237203E00BB10123237265810C34B442EC
:100C0000DED170BD5C000020024B0C2202FB0030E4
:100C1000007A70475C000020104B1A6842F0010215
:100C20001A6059680E4A0A405A601A6822F08472A3
:100C300022F480321A601A6822F480221A605A68FC
:100C400022F4FE025A604FF41F029A600022DA6218
:100C5000044B4FF000629A60704700BF00100240E2
:100C60000000FFF800ED00E000F0AEBFFEE7FEE799
:100C7000FEE7FEE7704770477047000008B5094B74
:100C80001A88013292B20A2A01D01A8004E00022A6
:100C90001A80054B01221A7001F02AFCBDE80840B9
:100CA00001F009BA4400002046000020014801F08C
:100CB00009BA00BF80000020014800F09ABA00BFC6
:100CC000C4000020204B07B59A69032042F00102BE
:100CD0009A619B6903F001030193019B01F078F98C
:100CE00000210A466FF00B0001F084F900210A464A
:100CF0006FF00A0001F07EF900210A466FF009004A
:100D000001F078F900210A466FF0040001F072F951
:100D100000210A466FF0030001F06CF900210A4639
:100D20006FF0010001F066F900210A464FF0FF3034
:100D300001F060F9054B5A6822F0E06242F000725F
:100D40005A6003B05DF804FB00100240000001404F
:100D50007FB50268104B9A421AD103F56C439A6929
:100D60000E4842F400729A619B6902A903F4007371
:100D70000193019B012302930323039300F034FFAB
:100D8000002112200A4601F035F9122001F064F921
:100D900007B05DF804FB00BF00240140000C0140D7
:100DA00010B50268164B86B09A4226D103F5E63399
:100DB000DA69144842F40032DA61DB6902A903F40B
:100DC00000330193019B0423029302230393032323
:100DD000059300F009FF082300240DEB03010948E7
:100DE00002930394049400F0FFFE2620214622463D
:100DF00001F000F9262001F02FF906B010BD00BF68
:100E000000440040000801400268084B82B09A424A
:100E10000AD103F5F233DA6942F40062DA61DB6980
:100E200003F400630193019B02B07047002C004063
:100E300010B54FF4803392B001220993109302242D
:100E40004FF4802308A808920A920F94119300F09F
:100E500017FB014600B1FEE70F23059006900790AF
:100E600003A80393049400F0DFFD00B1FEE70290B5
:100E70006846009400F080FA044600B1FEE700F0F6
:100E80006DFD00F069FE4FF47A73B0FBF3F001F0F2
:100E9000EFF8042001F002F94FF0FF30214622461E
:100EA00001F0A8F812B010BD70B588B001F014FBC5
:100EB000FFF7BEFF4F4B50489A6941F6F25142F09E
:100EC00020029A619A69012602F020020192019A99
:100ED0009A69022442F004029A619A69002502F09C
:100EE00004020292029A9A6942F008029A619B698E
:100EF000002203F008030393039B00F03DFF002250
:100F00003E484EF2380100F037FF41F6F2533A48BE
:100F100004A904930794059600F066FE4FF4F0636D
:100F2000364804A904930595069500F05DFE4EF23F
:100F30003803324804A9049307940596304C00F016
:100F400053FE304B204623604FF46023A560E560DC
:100F50006561E3616560266101F018FA00B1FEE7A2
:100F60000823069004A920460493059601F020F971
:100F700000B1FEE7244B25494FF4165283E80600E2
:100F80009860D86018610C229861D86118465A613F
:100F900000F000F900B1FEE71D4B1E4A58601A60D0
:100FA000184640229A60DA6000F038F800B1FEE797
:100FB000FFF77CFAFFF7E0FDFFF772FD164C237890
:100FC000002BFBD0FFF798FAFFF7A8FDFFF7F4FD21
:100FD000FFF796FAFFF75AF9FFF726F9FFF732F90C
:100FE000FFF724FDFFF736FAFFF738FB00232370E5
:100FF000E4E700BF0010024000080140000C01407F
:101000008000002000240140C40000200044004073
:10101000B0000020002C00404600002010B504461F
:10102000E8B1437C03F0FF0213B90274FFF7ECFE52
:10103000022363742368A0685A68616822F4FF720F
:10104000014322F001020A435A601968E26821F064
:101050007F010A431A6001236374002010BD012040
:1010600010BD00002DE9F0470668C36832690169C8
:1010700022F44052134333618268F368114342699A
:1010800023F4B0530A4323F00C031343F360726953
:10109000836922F44072134373613D4B04469E42C0
:1010A0004FF019052FD100F075FD68436368642780
:1010B0009B00B0FBF3F800F06DFD68436368B8FB7C
:1010C000F7F89B00B0FBF3F900F064FD6843636838
:1010D0004FEA08189B00B0FBF3F3B3FBF7F307FBF1
:1010E000139900F057FD684363684FEA091909F145
:1010F0003209B9FBF7F99B0009F0F009B0FBF3FAEC
:1011000000F048FD2EE000F02DFD68436368642781
:101110009B00B0FBF3F800F025FD68436368B8FB63
:10112000F7F89B00B0FBF3F900F01CFD684363681F
:101130004FEA08189B00B0FBF3F3B3FBF7F307FB90
:10114000139900F00FFD68434FEA0919636809F12C
:101150003209B9FBF7F99B0009F0F009B0FBF3FA8B
:1011600000F000FD684363689B00B0FBF3F5B5FB3E
:10117000F7F507FB15AA4FEA0A1A0AF1320ABAFB79
:10118000F7F707F00F074F444744B760BDE8F08713
:101190000038014010B5044630B390F8393003F000
:1011A000FF021BB980F83820FFF7FAFD022384F80C
:1011B000393023682046DA6822F40052DA60FFF7FB
:1011C00051FF236800201A6922F490421A615A697B
:1011D00022F02A025A61DA6842F40052DA600123EE
:1011E000E06384F8393010BD012010BD70477047AE
:1011F0007047036813B519680446C907DA6805D54E
:10120000D20503D5C26B42F00102C26319685A6964
:10121000880702F0010204D51AB1E16B41F0040124
:10122000E1631968490704D51AB1E16B41F0020185
:10123000E1631968080704D51AB1E26B42F00802AD
:10124000E2631968DA68890642D5900640D594F8B9
:10125000392002F0EF02222A3AD1A2682169B2F5C0
:10126000805FA26A0BD15B6821B9C3F3080322F83F
:10127000023B02E0DBB222F8013BA2620AE019B9AC
:10128000511CA1625B6804E05B68511CA16203F021
:101290007F031370E38D013B9BB2E385C3B92368E1
:1012A000DA6822F02002DA6094F83920322A01D17B
:1012B000122308E0DA6822F48072DA605A6922F0B8
:1012C00001025A61012384F839302046FFF78FFF6D
:1012D00023681968DA68090628D5100626D594F817
:1012E000392002F0DF02122A20D1A268B2F5805F15
:1012F000226A0AD11188C1F308015960216909B92C
:10130000023200E00132226203E0511C21621278B5
:101310005A60E28C013A92B2E2843AB9DA6822F079
:101320008002DA60DA6842F04002DA601968DA684E
:10133000490610D552060ED5DA68204622F0400242
:10134000DA6094F83930322B0CBF2223012384F861
:101350003930FFF74BFFE36B5BB1236820461A6817
:1013600001925B680193019B012384F83930FFF7F8
:101370003FFF02B010BD0000036873B50546D807F3
:101380006AD53C4CE36943F08053E361E36903F0C1
:1013900080530193019B384B1A6842F480721A60A3
:1013A00001F0AEF80646344B1B68D90506D401F0AF
:1013B000A7F8801B6428F6D9032059E0236A13F4A8
:1013C000407306D1226A6B6822F440721343236291
:1013D00042E06A6802F440729342F3D0254B4FF426
:1013E00080301B6A23F4407290FAA0F02349B0FACF
:1013F00080F0012641F820604FF4803090FAA0F090
:101400000026B0FA80F041F820602262DA07D9D5D0
:1014100001F076F80646022393FAA3F3022393FA27
:10142000A3F3B3FA83F343F040035B09022B0CBF31
:10143000236A636A022292FAA2F2B2FA82F202F0FC
:101440001F02D340DB07BDD401F05AF841F28833C4
:10145000801B9842DFD9AFE7286810F0020007D060
:10146000044BA9685A68002022F440420A435A609B
:1014700002B070BD00100240007000400004424203
:10148000036873B5DA07054603D42B689B0779D444
:10149000EFE0B24C636803F00C03042B07D06368E1
:1014A00003F00C03082B18D16368DE0315D54FF445
:1014B000003393FAA3F34FF40033226893FAA3F3B3
:1014C000B3FA83F303F01F0322FA03F3D807DCD542
:1014D0006B68002BD9D101203CE26B68B3F5803FEB
:1014E00013D05BB9236823F480332360236823F48B
:1014F0008023236001F004F8064631E0B3F5A02F05
:10150000236806D143F480232360236843F48033A7
:1015100005E023F480332360236823F480232360D1
:1015200000F0EEFF06464FF4003393FAA3F34FF4B6
:101530000033226893FAA3F3B3FA83F303F01F0393
:1015400022FA03F3D907A0D400F0DAFF801B642845
:10155000E9D90320FEE100F0D3FF801B6428F8D80E
:101560004FF4003393FAA3F34FF40033226893FA55
:10157000A3F3B3FA83F303F01F0322FA03F3DA07AA
:10158000E9D482E7754C636813F00C0F07D06368E9
:1015900003F00C03082B15D16368DB0312D402237C
:1015A00093FAA3F30223226893FAA3F3B3FA83F323
:1015B00003F01F0322FA03F3DE0729D52B69012B61
:1015C00089D125E02A69012382B393FAA3F3B3FA00
:1015D00083F39B0003F1844303F5840301221A6023
:1015E00000F08EFF0646022393FAA3F3022322683B
:1015F00093FAA3F3B3FA83F303F01F0322FA03F37E
:10160000D80705D400F07CFF801B0228EBD9A0E7A7
:101610002268F82191FAA1F16B69B1FA81F18B404E
:1016200022F0F80213434D4A136022E093FAA3F329
:10163000B3FA83F39B0003F1844303F58403002290
:101640001A6000F05DFF0646022393FAA3F302231B
:10165000226893FAA3F3B3FA83F303F01F0322FA89
:1016600003F3D90705D500F04BFF801B0228EBD907
:101670006FE72B681A074CD5A969384C0122384B03
:1016800029B392FAA2F20121B2FA82F243F82210AF
:1016900000F036FF0646022393FAA3F3022393FADF
:1016A000A3F30223626A93FAA3F3B3FA83F303F07A
:1016B0001F0322FA03F3DB0705D400F021FF801B90
:1016C0000228E8D945E7012000F020FF21E092FA46
:1016D000A2F20021B2FA82F243F8221000F010FFC9
:1016E0000646022393FAA3F3022393FAA3F30223F9
:1016F000626A93FAA3F3B3FA83F303F01F0322FAA7
:1017000003F3D80705D500F0FBFE801B0228E8D9BB
:101710001FE72B68590704D4EB69002B40F08B803E
:10172000E5E00E4CE36943F08053E361E36903F0C5
:1017300080530193019B0B4B1A6842F480721A602C
:1017400000F0DEFE0646074B1B68DA050CD400F0FD
:10175000D7FE801B6428F6D9FBE600BF00100240CC
:101760008004424200700040EB68012B12D05BB94C
:10177000236A23F001032362236A23F00403236214
:1017800000F0BEFE06463CE0052B236A06D143F07E
:1017900004032362236A43F0010305E023F00103FD
:1017A0002362236A23F00403236200F0A9FE0646A5
:1017B000022393FAA3F3022393FAA3F3B3FA83F376
:1017C00043F040035B09022B0CBF236A636A0222C9
:1017D00092FAA2F2B2FA82F202F01F02D340DB07C1
:1017E0009AD400F08DFE41F28833801B9842DFD9F5
:1017F000AFE600F085FE41F28833801B98423FF649
:10180000A8AE022393FAA3F3022393FAA3F3B3FA45
:1018100083F343F040035B09022B0CBF236A636A26
:10182000022292FAA2F2B2FA82F202F01F02D3402E
:10183000D807DED470E7484C626802F00C02082A30
:101840003FF449AE022B4FF080735ED193FAA3F3BD
:10185000B3FA83F39B0003F1844303F5840300226E
:101860001A6000F04DFE06464FF0007393FAA3F3A2
:101870004FF00073226893FAA3F3B3FA83F303F0F3
:101880001F0322FA03F3D90733D42B6AB3F5803F41
:1018900005D1E16AAA6821F00F010A43E262626899
:1018A000696A22F474120B43134363604FF0807330
:1018B00093FAA3F3B3FA83F39B0003F1844303F594
:1018C000840301221A6000F01BFE05464FF00073EE
:1018D00093FAA3F34FF00073226893FAA3F3B3FAD9
:1018E00083F303F01F0322FA03F3DA0707D500207E
:1018F00030E000F005FE801B0228B5D929E600F093
:10190000FFFD401B0228E1D923E693FAA3F3B3FAC3
:1019100083F39B0003F1844303F5840300221A60E0
:1019200000F0EEFD05464FF0007393FAA3F34FF07D
:101930000073226893FAA3F3B3FA83F303F01F034F
:1019400022FA03F3DB07D2D500F0DAFD401B0228B0
:10195000E9D9FEE502B070BD001002404FF400234B
:1019600093FAA3F3B3FA83F39B0003F1844303F5E3
:10197000840301221A60704730B5254B89B06C464C
:1019800003F1100518685968224603C20833AB42B8
:101990001446F7D11F4B04AC03F1100518685968C1
:1019A000224603C20833AB421446F7D11A494B68AA
:1019B00003F00C02042A02D0082A02D025E01748BE
:1019C00024E04FF4701292FAA2F203F47010B2FA0B
:1019D00082F220FA02F208A80244DB0312F8202C5B
:1019E00010D5CB6A0F2191FAA1F1B1FA81F103F080
:1019F0000F03CB4008A90B4413F8103C0748B0FB79
:101A0000F3F000E00648504300E0064809B030BD5E
:101A1000E0250008F0250008001002400024F40032
:101A200000093D0000127A00036870B513F0020F40
:101A30000546464C05D06168826821F0F0010A43F2
:101A40006260D80709D42B6859075FD56168EA68D6
:101A500021F4E0610A43626058E06B68012B07D112
:101A60004FF4003292FAA2F24FF4003221680EE0F5
:101A7000022B07D14FF0007292FAA2F24FF00072DF
:101A8000216804E0022292FAA2F22168022292FA6C
:101A9000A2F2B2FA82F202F01F0221FA02F2D20797
:101AA00052D5626822F003021343636000F028FD00
:101AB0006B680646012B0DD1636803F00C03042B01
:101AC000C1D000F01DFD41F28833801B9842F3D94C
:101AD000032070BD022B0BD0636813F00C0F0DD1E7
:101AE000B1E700F00DFD41F28833801B9842EFD83A
:101AF000636803F00C03082BF3D1A4E700F000FDAA
:101B000041F28833801B9842E6D9E1E71B0706D5EE
:101B100063682A6923F4605343EAC2036360FFF7F2
:101B20002BFF6368F02292FAA2F2B2FA82F203F07B
:101B3000F003D340064AD35CD840064B186000201F
:101B400000F0B8FC002070BD012070BD0010024004
:101B50002826000818000020014B1868704700BFB5
:101B600018000020084B4FF4E0625B6892FAA2F282
:101B7000B2FA82F203F4E063D340044AD35C044A2D
:101B80001068D840704700BF001002403826000897
:101B900018000020084B4FF460525B6892FAA2F2E2
:101BA000B2FA82F203F46053D340044AD35C044A8D
:101BB0001068D840704700BF001002403826000867
:101BC000180000207047000008B5054B9B681B06F5
:101BD00004D5FFF7F7FF034B80221A7008BD00BF42
:101BE000001002400A1002402DE9F341002425466E
:101BF0000123AB400A681A409A4240F0A5804B6826
:101C0000122B29D00ED8022B23D004D83BB3012BA2
:101C100030D1CC682EE0032B29D0112B2AD1CC68EF
:101C2000043427E04C4EB34219D006D8A6F58016EE
:101C3000B34214D006F5803608E0484EB3420ED0C9
:101C400006F58036B3420AD0A6F58016B34211D10C
:101C500005E0CC6808340DE0CC680C340AE08B68F1
:101C60003BB1012B0CBF02614261082402E0002459
:101C700000E00424FF2A02D80346AE0003E0A5F1E9
:101C80000806031DB6004FF00F0808FA06FC04FA18
:101C900006F61F6827EA0C073E431E604E68F300F5
:101CA00052D505F0030C4FEA8C0C08FA0CF82C4BBB
:101CB0009F6947F001079F619B6903F0010301934E
:101CC000019B25F0030303F1804303F580339F68F4
:101CD00027EA0808234FB8420ED007F58067B842BC
:101CE0000CD007F58067B8420AD007F58067B84284
:101CF00014BF0427032704E0002702E0012700E0C7
:101D0000022707FA0CF747EA08079F60164B16F4FC
:101D1000803F1F6814BF174397431F605F6816F426
:101D2000003F14BF174397435F609F6816F4801FFE
:101D300014BF174397439F6016F4001FDE6814BF5B
:101D4000324326EA0202DA600135102D7FF450AFEB
:101D500002B0BDE8F08100BF00002110000031108A
:101D6000001002400008014000040140836819424D
:101D70000CBF00200120704702B9090401617047BF
:101D8000064B0022DA61064B1A6942F004021A611E
:101D90001A6942F040021A61704700BF0801002032
:101DA00000200240064B0022DA61064B1A6942F01D
:101DB00002021A6158611A6942F040021A617047C2
:101DC00008010020002002402DE9F041234E054685
:101DD000337E0F46012B3ED003684FF00108022BE3
:101DE00086F818804CF2503010D100F07FF808B11E
:101DF00001202CE0FFF7C4FF4CF2503000F076F8E1
:101E0000174B1A6922F004021A6120E000F06EF804
:101E10000028EDD14FF0FF333B60AC684046EA68E4
:101E2000AB6803EB82239C4211D22046FFF7BAFF36
:101E30004CF2503000F05AF8094B1A6922F00202B5
:101E40001A6108B13C6002E004F58064E7E7002312
:101E50003376BDE8F0810220BDE8F0810801002062
:101E600000200240114BDA6812F0100F1A4604D01D
:101E70000F4BD96941F00201D961D368590704D5E4
:101E80000B4BDA6942F00102DA61084BDA69D207DA
:101E900008D5074AD16941F00401D161DA6922F01D
:101EA0000102DA611422DA60704700BF00200240AC
:101EB00008010020064B1A69120606D5054A0020C3
:101EC0005A6002F188325A6070470120704700BFA3
:101ED0000020024023016745034B00201A6942F0AD
:101EE00080021A61704700BF0020024038B50446E6
:101EF00000F006FB0546114BDA68D2070AD5611CD3
:101F0000F9D00CB9032038BD00F0FAFA401BA0420A
:101F1000F1D9F7E7DA68900644BF2022DA60DB687F
:101F2000064AD90606D4D369DB0703D4D06810F07B
:101F3000040002D0FFF796FF012038BD00200240C8
:101F40002DE9F0471D46204B14461A7E0646012A0D
:101F50008946984634D001234CF2503088F8183026
:101F6000FFF7C4FF38BB012E06D0022E14BF4FF07E
:101F7000040A4FF0020A00E0B24600263201204671
:101F80002946FEF745F9114F0023C8F81C303B697C
:101F900080B243F001033B6129F816004CF2503047
:101FA000FFF7A4FF3B6923F001033B6118B9013639
:101FB000F3B25345E2D3002388F81830BDE8F08728
:101FC0000220BDE8F08700BF080100200020024089
:101FD000074A00F00700D36823F4E0631B041B0CDE
:101FE00043F0BF6343F4003343EA0023D3607047F8
:101FF00000ED00E0164B70B5DB68C3F302231D1D36
:10200000C3F10704042C28BF0424062D4FF001055A
:1020100005FA04F48CBF033B002305FA03F6013CE8
:10202000214001FA03F3013E3240134300284FEAF6
:10203000031305DADAB2074B00F00F001A5470BD33
:1020400000F16040DBB200F5614080F8003370BD04
:1020500000ED00E014ED00E04209012300F01F0054
:1020600003FA00F0014B43F82200704700E100E062
:102070000138B0F1807F0AD2064B074AF021586040
:1020800082F823100020072298601A607047012010
:10209000704700BF10E000E000ED00E0044B0428B2
:1020A0001A680CBF42F0040222F004021A60704762
:1020B00010E000E0704708B5FFF7FCFF08BD70476F
:1020C00070477047036810B55A680446900627D5D4
:1020D0001A68910724D5A26AD20603D4A26A42F4F0
:1020E0000072A2629A6802F46022B2F5602F10D1E9
:1020F000E26872B95A6822F020025A60A36A23F497
:102100008073A362A36ADB0403D4A36A43F00103D0
:10211000A3622046FFF7D4FF23686FF012021A6013
:1021200023685A68100630D51A6851072DD5A26A5F
:10213000D20603D4A26A42F40052A2629A6802F460
:10214000E042B2F5E04F0AD05A68500516D49A68BA
:1021500002F46022B2F5602F10D1E26872B95A68B9
:1021600022F080025A60A36A23F48053A362A36A18
:10217000D90503D4A36A43F00103A3622046FFF705
:102180009EFF23686FF00C021A6023685A6852069B
:102190000DD51B68DB070AD5A36A204643F48033BC
:1021A000A362FFF78EFF23686FF001021A6010BD73
:1021B0002DE9F3410023019390F82430012B00F026
:1021C000B8804C680123062C80F824300A68036824
:1021D0001BD85E6B4FF4787C9CFAACFC4FF478779C
:1021E000BCFA8CFC013C97FAA7F704FB0CFCB7FA8D
:1021F00087F77C434FF01F0808FA0CFC02FA04F43E
:1022000026EA0C0634435C6336E00C2C4FF47875F8
:1022100019D8D3F830C095FAA5F54FF47877B5FA08
:1022200085F5073C97FAA7F76543B7FA87F77C432C
:102230004FF01F0808FA05F502FA04F42CEA050528
:102240002C431C6318E0D3F82CC095FAA5F54FF485
:102250007877B5FA85F50D3C97FAA7F76543B7FA95
:1022600087F77C434FF01F0808FA05F502FA04F4DB
:102270002CEA05052C43DC62092A4FF038048968F2
:1022800018D9D3F80CC094FAA4F43827B4FA84F41B
:10229000A2F10A0597FAA7F76C43B7FA87F77D43CF
:1022A0004FF0070808FA04F4A9402CEA040421437B
:1022B000D96014E01F6994FAA4F43826B4FA84F4BF
:1022C00096FAA6F6B6FA86F6544356434FF0070C34
:1022D0000CFA04F4B14027EA040421431961A2F185
:1022E0001001012901D900231EE014498B4216D1A7
:1022F00099680902F7D49968102A41F4000199609D
:10230000F1D10F4B1A680F4BB2FBF3F30A22534380
:102310000193019B002BE6D0019B013BF8E7836A08
:1023200043F0200383620123002280F82420184612
:1023300000E0022002B0BDE8F08100BF00240140AF
:102340001800002040420F0038B5036804469A6820
:10235000D20701D4002038BD9A6822F001029A60A9
:1023600000F0CEF8054623689B68DB07F2D500F045
:10237000C7F8401B0228F6D9A36A012043F01003D6
:10238000A362E36A43F00103E36238BD38B5044653
:10239000002800F08980836A23B9C36280F8243062
:1023A000FEF7D6FC2046FFF7CFFFA36A13F0100F0D
:1023B000A36A76D1002874D123F4885323F0020352
:1023C00043F00203A3620225E36895FAA5F5B5FA86
:1023D00085F503FA05F5E16962680A4342EA0500FA
:1023E000A268B2F5807F05D0012A14BF00214FF406
:1023F000807100E011466569012D15D163B94FF474
:10240000604595FAA5F5A369B5FA85F5013BAB40A2
:1024100041F40061194307E0A36A43F02003A3627B
:10242000E36A43F00103E3622368B2F5807F5D68ED
:1024300025F4694541EA050159609D681B4905EA93
:10244000010140EA0101996001D0012A0AD14FF44B
:10245000700292FAA2F22169B2FA82F2013901FA0B
:1024600002F200E00022D96A21F470010A43DA6224
:102470009A680F4B1340834208D10020E062A36AA0
:1024800023F0030343F00103A36238BDA36A23F0E2
:10249000120343F01003A362E36A43F00103E36213
:1024A00002E043F01003A362012038BDFDF7E1FF15
:1024B000FE0E1FFF10B50446FFF74EFB4FF47A7374
:1024C000B0FBF3F0FFF7D4FD4FF0FF3021460022C0
:1024D000FFF790FD002010BD08B50320FFF778FD41
:1024E0000020FFF7E7FFFEF7EDFB002008BD00002E
:1024F000024B1A6801321A60704700BF4800002082
:10250000014B1868704700BF4800002013B50190C8
:10251000FFF7F6FF0446FFF7F3FF019B001B98420D
:10252000F9D302B010BD0000002100F004B80D4B3B
:102530005B58435004310C480C4B42189A42FFF44C
:10254000F6AF0B4A00F003B8002342F8043B094BF6
:102550009A42FFF4F9AFFEF75FFB00F00FF8FEF7C9
:10256000A3FC704748260008000000201C00002043
:102570002000002028010020FFF7FEBF70B50E4BA1
:102580000E4D0024ED1AAD101E46AC4204D056F894
:10259000242090470134F8E700F016F8084D094B65
:1025A0000024ED1AAD101E46AC4204D056F824208B
:1025B00090470134F8E770BD402600084026000827
:1025C0004426000840260008F8B500BFF8BC08BC47
:1025D0009E467047F8B500BFF8BC08BC9E467047E1
:1025E00002030405060708090A0B0C0D0E0F101054
:1025F0000102030405060708090A0B0C0D0E0F1053
:10260000D50900087D09000825090008CD08000843
:10261000750800081D080008C50700086D070008B8
:1026200015070008BD0600080000000000000000BB
:102630000102030406070809000000000102030468
:04264000F501000898
:04264400D1010008B8
:102648000000000000000000000001080100000078
:0C265800000001081400630000366E0151
:0400000508002529A1
:00000001FF
