:020000040800F2
:1000000000200020092B0008FD0E0008010F000849
:10001000030F0008050F0008070F0008000000008C
:10002000000000000000000000000000090F0008B0
:100030000B0F0008000000000D0F0008110F000852
:10004000592B0008592B0008592B0008592B000880
:10005000592B0008592B0008592B0008592B000870
:10006000592B0008592B0008592B0008592B000860
:10007000592B0008592B0008592B0008592B000850
:10008000592B0008592B0008590F000800000000E8
:10009000000000000000000000000000592B0008D4
:1000A000592B0008592B0008592B0008592B000820
:1000B000592B0008592B0008592B0008592B000810
:1000C000592B00080000000000000000592B000818
:1000D000592B0008592B0008650F0008592B000800
:1000E000592B0008592B0008592B0008000000006C
:1000F0000000000000000000000000000000000000
:1001000000000000000000000000000000000000EF
:100110000000000000000000592B0008592B0008C7
:1001200000000000000000000000000000000000CF
:1001300000000000000000000000000000000000BF
:1001400000000000000000000000000000000000AF
:10015000000000000000000000000000000000009F
:10016000000000000000000000000000000000008F
:10017000000000000000000000000000000000007F
:10018000000000000000000000000000000000006F
:10019000000000000000000000000000000000005F
:1001A000000000000000000000000000000000004F
:1001B000000000000000000000000000000000003F
:1001C0000000000000000000000000005FF808F1DF
:1001D00010B5054C237833B9044B13B10448AFF381
:1001E00000800123237010BDD80000200000000013
:1001F000A82B000808B5034B1BB103480349AFF314
:10020000008008BD00000000A82B0008DC000020D2
:10021000D0400B1CD1409C46203AD3401843524258
:100220006346934018437047F8B5354F7D7800F02A
:1002300085FA4FF6FF739842044604D1002000F07F
:1002400047FA04233B702F4E304600F0A6F916F80B
:10025000023C042B52D8DFE803F0031903323F00BD
:10026000284E304600F09EF9002847D06B1EA3426E
:1002700004D3002000F02CFA03233DE00135A54211
:100280003CD8012000F024FA30461FE0013DA54291
:1002900004D3002000F01CFA03233B70194C2046C5
:1002A00000F080F950B3002000F012FA20464FF41D
:1002B000966100F070F9022304F8023CF8BD0135A4
:1002C000A5421BD8012000F003FA0E4842F6E06177
:1002D00000F061F901230FE0002000F0F9F94FF67A
:1002E000FF739C420AD0002000F0F2F905484FF459
:1002F000966100F050F9002306F8023CF8BD00BFFB
:100300000401002006010020014B5870704700BF17
:1003100004010020014B5878704700BF0401002001
:1003200008B5104800F039F9002000F0B7FD28B1F9
:100330000C484FF4FA6100F02EF909E0012000F0BA
:10034000ADFD0028F4D1022000F0A8FD0028EFD177
:10035000044800F027F9BDE8084080F00100C0B271
:1003600000F0BCB9F400002010B52A4C204600F083
:1003700014F914F8023C032B4BD8DFE803F0020D0C
:100380001B320020014600F0D1FA0120002100F0CC
:10039000CDFA0220002109E00020012100F0C6FA78
:1003A0000120014600F0C2FA02200121BDE8104000
:1003B00000F0BCBA174C204600F0F4F848B3002017
:1003C000014600F0B3FA0120002100F0AFFA02204C
:1003D000002100F0ABFA2046192100F0DCF80323DD
:1003E00015E00C4C204600F0DDF890B10020012112
:1003F00000F09CFA0120014600F098FA0220012149
:1004000000F094FA2046192100F0C5F8022304F800
:10041000023C10BD0A01002010B50020012100F0AF
:1004200085FA01200146074C00F080FA02200121E4
:1004300000F07CFA2046192100F0ADF8022304F800
:10044000023C10BD0A010020014B00221A707047C7
:1004500008010020014B01221A707047080100209A
:1004600008B50A484FF4807101F048FE60B100F011
:100470008BF90C230649B0FBF3F008700122054804
:10048000BDE8084001F012B808BD00BF000C0140F3
:10049000F60000205402002073B5144C0646236871
:1004A00019884FF6FF729142114D0DD1236001F072
:1004B000C9FE2368AB420CD90E4801A901F04CFEDD
:1004C0000D4A0A4B1A6004E0AB42EFD833F8021F22
:1004D000E7E72168B2B20023012001F0F9FE01F044
:1004E000C3FE23680233236002B070BD10000020F9
:1004F000FD0301080000002000000108084A1388DD
:1005000018464FF6FF718B4209D001F1006101F2EC
:10051000FF318A4203D0184632F8023FF1E77047B4
:100520000000010800238160C3808280036070475F
:10053000C288838830B59A4224BF0023C380C38811
:1005400084685A1CC28024F81310818800231A463C
:100550009DB28D4204D234F8135001332A44F7E798
:10056000B2FBF1F2026030BD008870478180C1802B
:1005700002804280704743888B4201D0C38802E0EA
:1005800083880BB1013B8380838803B9018041805C
:100590007047008870470180704703880BB1013BAA
:1005A000038070470088D0F1010038BF00207047F9
:1005B00038B5194D04462B7883422CD0012819D028
:1005C00008D3022826D115484FF48041002201F0BB
:1005D0009BFD1FE011484FF48041002201F094FD83
:1005E0000E484FF40041002201F08EFDA81C42F29B
:1005F00028310DE009484FF48041224601F084FD86
:1006000006484FF40041224601F07EFDA81C6421FB
:10061000FFF7C1FF2C7038BD0C010020000C014019
:1006200038B50D4D00240D4B284622464FF400519D
:100630005C701C705C8001F067FD284622464FF418
:10064000804101F061FD284622464FF40041BDE89B
:10065000384001F059BD00BF000C01400C010020E2
:1006600070B5194C2046FFF798FF14F8023CA51E00
:10067000012B2E4618D003D3022B1ED16B781BE022
:1006800012484FF48041002201F03EFD0F484FF424
:100690000041002201F038FD2046FFF783FF88B1BA
:1006A0006B787BB1012009E02046FFF77BFF10B19A
:1006B0000220FFF77DFF737823B90020BDE870406A
:1006C000FFF776BF70BD00BF0E010020000C014097
:1006D000014B5870704700BF0C01002002464FF4D8
:1006E0000051024802B1012201F00EBD000C014090
:1006F00008B5054805496422FFF714FFBDE8084026
:10070000034802F0CBB800BFD80100201001002040
:100710001002002008B50748642101F099FE40B995
:10072000044801F03BFFBDE8084081B20248FFF7F2
:10073000FFBE08BD10020020D801002010B51048EF
:10074000FFF712FF0F4B1A881C46824212D9002273
:10075000D3B234F82310814201D20132F8E70949BB
:1007600001EB830149888142F7D82C2B04D85B0820
:10077000981D10BD002010BD4FF6FF7010BD00BFCA
:10078000D8010020140000200148FFF7EDBE00BF93
:10079000D801002038B5524C2046FFF7FEFE14F871
:1007A000023C2546042B00F29A80DFE803F0033771
:1007B0000D485300FFF7A2FE4A4A10804FF6FF7221
:1007C000904208BF1B2083E0FFF7B8FFC0B200F0E3
:1007D000E9FA002000F062FB01280AD1FFF73AFE97
:1007E0003F484FF49671FFF7D6FE012305F8023C0F
:1007F00009E0012000F052FB0128EFD0022000F0B8
:100800004DFB0128EAD0022000F048FB03280446F3
:1008100065D1FFF701FE344B1C7038BDFFF77AFD40
:100820002F4CC0B200F0BEFA2046FFF7BBFE0028F6
:1008300055D0FFF709FE022304F8023C38BD022020
:1008400000F02CFB01284AD1FFF764FD274B04225E
:10085000188042E0012000F021FB0128234C06D142
:1008600023881B2B08D8214A0133138004E0012080
:1008700000F014FB0228F3D0002000F00FFB012849
:1008800006D12388062B08D9184A013B138004E0BF
:10089000002000F003FB0228F3D0207800F082FA59
:1008A000022000F0FBFA032809D1FFF7D3FD0C4822
:1008B0004FF49671FFF76FFE012305F8023C02200A
:1008C00000F0ECFA01280AD12088FFF7E5FD208826
:1008D000FFF71AFDFFF7B8FD0222034B1A7038BD6F
:1008E000E6010020CE000020E4010020CC00002022
:1008F00010B50C4C0C482278202102B1012201F0E5
:1009000003FC62780848102102B1012201F0FCFBCF
:10091000A2780548082102B10122BDE8104001F08B
:10092000F3BB00BFE8010020000C0140012806D005
:1009300002D3022806D07047044B19707047034B4E
:1009400059707047014B9970704700BFE801002053
:1009500010B5144C4FF480512046012201F0D4FB15
:1009600020462021012201F0CFFB20460221012256
:1009700001F0CAFB20464021012201F0C5FB2046C0
:100980001021002201F0C0FB20464FF480710122AB
:1009900001F0BAFB20464FF400610122BDE810408F
:1009A00001F0B2BB0008014010B5144C4FF4805167
:1009B0002046012201F0A8FB20462021012201F05F
:1009C000A3FB20460221012201F09EFB204640218C
:1009D000012201F099FB20461021012201F094FB35
:1009E00020464FF48071012201F08EFB20464FF427
:1009F00000610122BDE8104001F086BB0008014003
:100A000010B5144C4FF480512046012201F07CFBBC
:100A100020462021012201F077FB204602210122FD
:100A200001F072FB20464021002201F06DFB2046C0
:100A30001021002201F068FB20464FF48071002253
:100A400001F062FB20464FF400610022BDE8104037
:100A500001F05ABB0008014010B5144C4FF480510E
:100A60002046012201F050FB20462021002201F007
:100A70004BFB20460221012201F046FB204640218B
:100A8000012201F041FB20461021012201F03CFB34
:100A900020464FF48071012201F036FB20464FF4CE
:100AA00000610122BDE8104001F02EBB00080140AA
:100AB00010B5144C4FF480512046012201F024FB64
:100AC00020462021002201F01FFB204602210122A6
:100AD00001F01AFB20464021012201F015FB2046BF
:100AE0001021002201F010FB20464FF480710122FA
:100AF00001F00AFB20464FF400610122BDE81040DE
:100B000001F002BB0008014010B5144C4FF48051B5
:100B10002046002201F0F8FA20462021012201F0AF
:100B2000F3FA20460221012201F0EEFA204640218C
:100B3000002201F0E9FA20461021002201F0E4FA37
:100B400020464FF48071012201F0DEFA20464FF476
:100B500000610122BDE8104001F0D6BA0008014052
:100B600010B5144C4FF480512046012201F0CCFA0C
:100B700020462021012201F0C7FA2046022101224D
:100B800001F0C2FA20464021012201F0BDFA2046C0
:100B90001021002201F0B8FA20464FF480710022A3
:100BA00001F0B2FA20464FF400610122BDE8104086
:100BB00001F0AABA0008014010B5144C4FF480515E
:100BC0002046012201F0A0FA20462021012201F056
:100BD0009BFA20460221002201F096FA204640218D
:100BE000012201F091FA20461021012201F08CFA35
:100BF00020464FF48071002201F086FA20464FF41F
:100C000000610122BDE8104001F07EBA00080140F9
:100C100010B5144C4FF480512046002201F074FAB4
:100C200020462021012201F06FFA204602210122F4
:100C300001F06AFA20464021002201F065FA2046C0
:100C40001021002201F060FA20464FF4807100224A
:100C500001F05AFA20464FF400610022BDE810402E
:100C600001F052BA0008014010B5144C4FF4805105
:100C70002046012201F048FA20462021012201F0FD
:100C800043FA20460221012201F03EFA204640218B
:100C9000012201F039FA20461021012201F034FA34
:100CA00020464FF48071012201F02EFA20464FF4C5
:100CB00000610022BDE8104001F026BA00080140A2
:100CC000F8B5184B184C1D782778632D28BF63257D
:100CD000164E1748802187B1002201F015FA1448FA
:100CE0004FF48061012201F00FFA0A23B5FBF3F5FE
:100CF00056F825309847002312E0012201F004FA4B
:100D00000B484FF480613A4601F0FEF90A23B5FB27
:100D1000F3F203FB1253DBB256F82330984701235A
:100D20002370F8BDF7000020F8000020E02B000839
:100D30000008014010B51A4C80212046012201F024
:100D4000E3F920464FF48061012201F0DDF92046ED
:100D50004FF48051002201F0D7F9204620210022D3
:100D600001F0D2F920460221002201F0CDF92046FF
:100D70004021002201F0C8F920461021002201F094
:100D8000C3F920464FF48071002201F0BDF92046DE
:100D90004FF400610022BDE8104001F0B5B900BF7A
:100DA00000080140014B1870704700BFF700002099
:100DB00038B5144D4FF40071284601F09FF9124CDC
:100DC000D0F1010138BF00212046FFF7D4FB2846AF
:100DD0004FF4807101F092F9D0F1010138BF002188
:100DE00004F10C00FFF7C7FB2846802101F086F9CB
:100DF000D0F1010138BF002104F11800BDE83840EE
:100E0000FFF7B9BB000C0140EC010020F8B50D4B19
:100E100000221A701F4638780A4C022810D80A4D52
:100E20000C2606FB005000220421FFF79FFB2378CD
:100E3000002206FB035501332A726A812370EAE718
:100E4000F8BD00BFF9000020EC01002070B5124C85
:100E500004F12406002520462572FFF79AFB6389DA
:100E600090B101339BB21422B3FBF2F1638102FB18
:100E700011339BB20BB9022323726389B3F5967FBA
:100E800006D10323237203E00BB101232372658192
:100E90000C34B442DED170BDEC010020024B0C22B8
:100EA00002FB0030007A7047EC010020104B1A68FA
:100EB00042F001021A6059680E4A0A405A601A68E4
:100EC00022F0847222F480321A601A6822F480229E
:100ED0001A605A6822F4FE025A604FF41F029A60A8
:100EE0000022DA62044B4FF000629A60704700BF44
:100EF000001002400000FFF800ED00E001F02CB807
:100F0000FEE7FEE7FEE7FEE7704770477047000028
:100F10000E4A08B513880A2101339BB2B3FBF1F0E6
:100F200001FB103189B2138011B909490120087001
:100F3000642B04D1074B012119700023138001F0A9
:100F4000C7FDBDE8084001F07EBA00BFFA000020EE
:100F5000FC000020FD000020014801F024BB00BF80
:100F600010020020014800F0CEBA00BF5402002059
:100F7000204B07B59A69032042F001029A619B69F0
:100F800003F001030193019B01F0EAF900210A46F5
:100F90006FF00B0001F0F6F900210A466FF00A002D
:100FA00001F0F0F900210A466FF0090001F0EAF9BA
:100FB00000210A466FF0040001F0E4F900210A461E
:100FC0006FF0030001F0DEF900210A466FF0010026
:100FD00001F0D8F900210A464FF0FF3001F0D2F9B4
:100FE000054B5A6822F0E06242F000725A6003B08A
:100FF0005DF804FB00100240000001407FB502686C
:10100000104B9A421AD103F56C439A690E4842F488
:1010100000729A619B6902A903F400730193019B1A
:10102000012302930323039300F0A6FF0021122063
:101030000A4601F0A7F9122001F0D6F907B05DF8D1
:1010400004FB00BF00240140000C014010B5026801
:10105000164B86B09A4226D103F5E633DA69144876
:1010600042F40032DA61DB6902A903F40033019330
:10107000019B04230293022303930323059300F0AF
:101080007BFF082300240DEB03010948029303941E
:10109000049400F071FF26202146224601F072F9E7
:1010A000262001F0A1F906B010BD00BF00440040A9
:1010B000000801400268084B82B09A420AD103F549
:1010C000F233DA6942F40062DA61DB6903F4006347
:1010D0000193019B02B07047002C004010B54FF403
:1010E000803392B001220993109302244FF480239D
:1010F00008A808920A920F94119300F089FB014608
:1011000000B1FEE70F2305900690079003A8039314
:10111000049400F051FE00B1FEE70290684600948E
:1011200000F0B4FA044600B1FEE700F0DFFD00F085
:10113000DBFE4FF47A73B0FBF3F001F061F90420A9
:1011400001F074F94FF0FF302146224601F01AF900
:1011500012B010BD70B588B001F0AEFCFFF7BEFF55
:10116000534B54489A6941F6F25142F020029A6179
:101170009A69012502F020020192019A9A690224DB
:1011800042F004029A619A69002602F00402029277
:10119000029A9A6942F008029A619B69002203F060
:1011A00008030393039B00F0AFFF002242484EF276
:1011B000380100F0A9FF41F6F2533E4804A9049318
:1011C0000794059500F0D8FE4FF4F0633A4804A95F
:1011D00004930596069600F0CFFE4EF2380336488B
:1011E00004A9049307940595344C00F0C5FE344BD4
:1011F000204623604FF46023A660E5606661E361EA
:101200006660256101F0B2FB00B1FEE7082306909D
:1012100004A920460493059501F03CFA00B1FEE7CD
:10122000284B29494FF4165283E806009860D8608D
:1012300018610C229861D86118465A6100F00AF9C9
:1012400000B1FEE7214B224A58601A60184640223E
:101250009A60DA6000F042F800B1FEE7FFF748FA62
:10126000FFF7DEF9FFF7D2FDFFF764FD194C237895
:101270003BB1FFF74FFAFEF7D7FFFFF7F1F8002376
:101280002370154C2378002BF0D0FFF791FDFFF76A
:10129000DDFDFFF77FFAFFF767F8FFF741F8FFF78B
:1012A0000FFDFFF7DDF9FFF723FB00232370DDE7D8
:1012B0000010024000080140000C01401002002014
:1012C000002401405402002000440040400200205D
:1012D000002C0040FD000020FC00002010B504465A
:1012E000E8B1437C03F0FF0213B90274FFF7E2FE9A
:1012F000022363742368A0685A68616822F4FF724D
:10130000014322F001020A435A601968E26821F0A1
:101310007F010A431A6001236374002010BD01207D
:1013200010BD00002DE9F0470668C3683269016905
:1013300022F44052134333618268F36811434269D7
:1013400023F4B0530A4323F00C031343F360726990
:10135000836922F44072134373613D4B04469E42FD
:101360004FF019052FD100F0DDFD68436368642755
:101370009B00B0FBF3F800F0D5FD68436368B8FB51
:10138000F7F89B00B0FBF3F900F0CCFD684363680D
:101390004FEA08189B00B0FBF3F3B3FBF7F307FB2E
:1013A000139900F0BFFD684363684FEA091909F11A
:1013B0003209B9FBF7F99B0009F0F009B0FBF3FA29
:1013C00000F0B0FD2EE000F095FD684363686427EF
:1013D0009B00B0FBF3F800F08DFD68436368B8FB39
:1013E000F7F89B00B0FBF3F900F084FD68436368F5
:1013F0004FEA08189B00B0FBF3F3B3FBF7F307FBCE
:10140000139900F077FD68434FEA0919636809F101
:101410003209B9FBF7F99B0009F0F009B0FBF3FAC8
:1014200000F068FD684363689B00B0FBF3F5B5FB13
:10143000F7F507FB15AA4FEA0A1A0AF1320ABAFBB6
:10144000F7F707F00F074F444744B760BDE8F08750
:101450000038014010B5044630B390F8393003F03D
:10146000FF021BB980F83820FFF7F0FD022384F853
:10147000393023682046DA6822F40052DA60FFF738
:1014800051FF236800201A6922F490421A615A69B8
:1014900022F02A025A61DA6842F40052DA6001232B
:1014A000E06384F8393010BD012010BD90F8393068
:1014B000DBB2012B01D0222B20D1E9B1E2B190F8AF
:1014C0003830012B1AD0012380F838300023C36351
:1014D0008284C28490F8392080F83830222A036848
:1014E0000CBF3222122280F83920DA68016242F001
:1014F0008002DA60002070470120704702207047A8
:10150000704770477047036813B519680446C907E8
:10151000DA6805D5D20503D5C26B42F00102C26379
:1015200019685A69880702F0010204D51AB1E16B03
:1015300041F00401E1631968490704D51AB1E16B70
:1015400041F00201E1631968080704D51AB1E26BA2
:1015500042F00802E2631968DA68890642D590060B
:1015600040D594F8392002F0EF02222A3AD1A2683D
:101570002169B2F5805FA26A0BD15B6821B9C3F320
:10158000080322F8023B02E0DBB222F8013BA26230
:101590000AE019B9511CA1625B6804E05B68511C48
:1015A000A16203F07F031370E38D013B9BB2E385DF
:1015B000C3B92368DA6822F02002DA6094F839208F
:1015C000322A01D1122308E0DA6822F48072DA604C
:1015D0005A6922F001025A61012384F83930204609
:1015E000FFF78FFF23681968DA68090628D5100607
:1015F00026D594F8392002F0DF02122A20D1A26801
:10160000B2F5805F226A0AD11188C1F308015960DE
:10161000216909B9023200E00132226203E0511C63
:10162000216212785A60E28C013A92B2E2843AB9AD
:10163000DA6822F08002DA60DA6842F04002DA60AA
:101640001968DA68490610D552060ED5DA682046C0
:1016500022F04002DA6094F83930322B0CBF22239A
:10166000012384F83930FFF74BFFE36B5BB123684C
:1016700020461A6801925B680193019B012384F85C
:101680003930FFF73FFF02B010BD0000036873B5AB
:101690000546D8076AD53C4CE36943F08053E361C3
:1016A000E36903F080530193019B384B1A6842F4BD
:1016B00080721A6001F014FA0646344B1B68D90593
:1016C00006D401F00DFA801B6428F6D9032059E0F6
:1016D000236A13F4407306D1226A6B6822F44072C5
:1016E0001343236242E06A6802F440729342F3D0EB
:1016F000254B4FF480301B6A23F4407290FAA0F01F
:101700002349B0FA80F0012641F820604FF4803080
:1017100090FAA0F00026B0FA80F041F82060226232
:10172000DA07D9D501F0DCF90646022393FAA3F3D0
:10173000022393FAA3F3B3FA83F343F040035B0964
:10174000022B0CBF236A636A022292FAA2F2B2FA57
:1017500082F202F01F02D340DB07BDD401F0C0F9D2
:1017600041F28833801B9842DFD9AFE7286810F038
:10177000020007D0044BA9685A68002022F44042B6
:101780000A435A6002B070BD001002400070004071
:1017900000044242012808B513D0022831D100F0DC
:1017A000C1FB194B4FF480425B6892FAA2F2B2FA85
:1017B00082F203F44043D34001335B00B0FBF3F00B
:1017C00008BD114B40F20232196A0A40B2F5817F1E
:1017D00014D001F44072B2F5007F05D15B6A49F67E
:1017E000404013F0020F06E0B2F5407F09D11B68BC
:1017F000064813F4003F08BF002008BD4FF4004026
:1018000008BD002008BD00BF0010024048E80100EC
:10181000036873B5DA07054603D42B689B0779D4B0
:10182000EFE0B24C636803F00C03042B07D063684D
:1018300003F00C03082B18D16368DE0315D54FF4B1
:10184000003393FAA3F34FF40033226893FAA3F31F
:10185000B3FA83F303F01F0322FA03F3D807DCD5AE
:101860006B68002BD9D101203CE26B68B3F5803F57
:1018700013D05BB9236823F480332360236823F4F7
:101880008023236001F02CF9064631E0B3F5A02F48
:10189000236806D143F480232360236843F4803314
:1018A00005E023F480332360236823F4802323603E
:1018B00001F016F906464FF4003393FAA3F34FF400
:1018C0000033226893FAA3F3B3FA83F303F01F0300
:1018D00022FA03F3D907A0D401F002F9801B64288F
:1018E000E9D90320FEE101F0FBF8801B6428F8D859
:1018F0004FF4003393FAA3F34FF40033226893FAC2
:10190000A3F3B3FA83F303F01F0322FA03F3DA0716
:10191000E9D482E7754C636813F00C0F07D0636855
:1019200003F00C03082B15D16368DB0312D40223E8
:1019300093FAA3F30223226893FAA3F3B3FA83F38F
:1019400003F01F0322FA03F3DE0729D52B69012BCD
:1019500089D125E02A69012382B393FAA3F3B3FA6C
:1019600083F39B0003F1844303F5840301221A608F
:1019700001F0B6F80646022393FAA3F30223226885
:1019800093FAA3F3B3FA83F303F01F0322FA03F3EA
:10199000D80705D401F0A4F8801B0228EBD9A0E7F2
:1019A0002268F82191FAA1F16B69B1FA81F18B40BB
:1019B00022F0F80213434D4A136022E093FAA3F396
:1019C000B3FA83F39B0003F1844303F584030022FD
:1019D0001A6001F085F80646022393FAA3F3022366
:1019E000226893FAA3F3B3FA83F303F01F0322FAF6
:1019F00003F3D90705D501F073F8801B0228EBD952
:101A00006FE72B681A074CD5A969384C0122384B6F
:101A100029B392FAA2F20121B2FA82F243F822101B
:101A200001F05EF80646022393FAA3F3022393FA29
:101A3000A3F30223626A93FAA3F3B3FA83F303F0E6
:101A40001F0322FA03F3DB0705D401F049F8801BDA
:101A50000228E8D945E7012001F048F821E092FA90
:101A6000A2F20021B2FA82F243F8221001F038F813
:101A70000646022393FAA3F3022393FAA3F3022365
:101A8000626A93FAA3F3B3FA83F303F01F0322FA13
:101A900003F3D80705D501F023F8801B0228E8D905
:101AA0001FE72B68590704D4EB69002B40F08B80AB
:101AB000E5E00E4CE36943F08053E361E36903F032
:101AC00080530193019B0B4B1A6842F480721A6099
:101AD00001F006F80646074B1B68DA050CD400F047
:101AE000FFFF801B6428F6D9FBE600BF0010024010
:101AF0008004424200700040EB68012B12D05BB9B9
:101B0000236A23F001032362236A23F00403236280
:101B100000F0E6FF06463CE0052B236A06D143F0C1
:101B200004032362236A43F0010305E023F0010369
:101B30002362236A23F00403236200F0D1FF0646E8
:101B4000022393FAA3F3022393FAA3F3B3FA83F3E2
:101B500043F040035B09022B0CBF236A636A022235
:101B600092FAA2F2B2FA82F202F01F02D340DB072D
:101B70009AD400F0B5FF41F28833801B9842DFD938
:101B8000AFE600F0ADFF41F28833801B98423FF68C
:101B9000A8AE022393FAA3F3022393FAA3F3B3FAB2
:101BA00083F343F040035B09022B0CBF236A636A93
:101BB000022292FAA2F2B2FA82F202F01F02D3409B
:101BC000D807DED470E7484C626802F00C02082A9D
:101BD0003FF449AE022B4FF080735ED193FAA3F32A
:101BE000B3FA83F39B0003F1844303F584030022DB
:101BF0001A6000F075FF06464FF0007393FAA3F3E6
:101C00004FF00073226893FAA3F3B3FA83F303F05F
:101C10001F0322FA03F3D90733D42B6AB3F5803FAD
:101C200005D1E16AAA6821F00F010A43E262626805
:101C3000696A22F474120B43134363604FF080739C
:101C400093FAA3F3B3FA83F39B0003F1844303F500
:101C5000840301221A6000F043FF05464FF0007331
:101C600093FAA3F34FF00073226893FAA3F3B3FA45
:101C700083F303F01F0322FA03F3DA0707D50020EA
:101C800030E000F02DFF801B0228B5D929E600F0D6
:101C900027FF401B0228E1D923E693FAA3F3B3FA06
:101CA00083F39B0003F1844303F5840300221A604D
:101CB00000F016FF05464FF0007393FAA3F34FF0C0
:101CC0000073226893FAA3F3B3FA83F303F01F03BC
:101CD00022FA03F3DB07D2D500F002FF401B0228F3
:101CE000E9D9FEE502B070BD001002404FF40023B8
:101CF00093FAA3F3B3FA83F39B0003F1844303F550
:101D0000840301221A60704730B5254B89B06C46B8
:101D100003F1100518685968224603C20833AB4224
:101D20001446F7D11F4B04AC03F11005186859682D
:101D3000224603C20833AB421446F7D11A494B6816
:101D400003F00C02042A02D0082A02D025E017482A
:101D500024E04FF4701292FAA2F203F47010B2FA77
:101D600082F220FA02F208A80244DB0312F8202CC7
:101D700010D5CB6A0F2191FAA1F1B1FA81F103F0EC
:101D80000F03CB4008A90B4413F8103C0748B0FBE5
:101D9000F3F000E00648504300E0064809B030BDCB
:101DA000C02B0008D02B0008001002400024F400D3
:101DB00000093D0000127A00036870B513F0020FAD
:101DC0000546464C05D06168826821F0F0010A435F
:101DD0006260D80709D42B6859075FD56168EA6843
:101DE00021F4E0610A43626058E06B68012B07D17F
:101DF0004FF4003292FAA2F24FF4003221680EE062
:101E0000022B07D14FF0007292FAA2F24FF000724B
:101E1000216804E0022292FAA2F22168022292FAD8
:101E2000A2F2B2FA82F202F01F0221FA02F2D20703
:101E300052D5626822F003021343636000F050FE43
:101E40006B680646012B0DD1636803F00C03042B6D
:101E5000C1D000F045FE41F28833801B9842F3D98F
:101E6000032070BD022B0BD0636813F00C0F0DD153
:101E7000B1E700F035FE41F28833801B9842EFD87D
:101E8000636803F00C03082BF3D1A4E700F028FEED
:101E900041F28833801B9842E6D9E1E71B0706D55B
:101EA00063682A6923F4605343EAC2036360FFF75F
:101EB0002BFF6368F02292FAA2F2B2FA82F203F0E8
:101EC000F003D340064AD35CD840064B186000208C
:101ED00000F0E0FD002070BD012070BD0010024048
:101EE000082C0008D0000020014B1868704700BF84
:101EF000D0000020084B4FF4E0625B6892FAA2F237
:101F0000B2FA82F203F4E063D340044AD35C044A99
:101F10001068D840704700BF00100240182C00081D
:101F2000D0000020084B4FF460525B6892FAA2F296
:101F3000B2FA82F203F46053D340044AD35C044AF9
:101F40001068D840704700BF00100240182C0008ED
:101F5000D00000207047000008B5054B9B681B06A9
:101F600004D5FFF7F7FF034B80221A7008BD00BFAE
:101F7000001002400A1002402DE9F34100242546DA
:101F80000123AB400A681A409A4240F0A5804B6892
:101F9000122B29D00ED8022B23D004D83BB3012B0F
:101FA00030D1CC682EE0032B29D0112B2AD1CC685C
:101FB000043427E04C4EB34219D006D8A6F580165B
:101FC000B34214D006F5803608E0484EB3420ED036
:101FD00006F58036B3420AD0A6F58016B34211D179
:101FE00005E0CC6808340DE0CC680C340AE08B685E
:101FF0003BB1012B0CBF02614261082402E00024C6
:1020000000E00424FF2A02D80346AE0003E0A5F155
:102010000806031DB6004FF00F0808FA06FC04FA84
:1020200006F61F6827EA0C073E431E604E68F30061
:1020300052D505F0030C4FEA8C0C08FA0CF82C4B27
:102040009F6947F001079F619B6903F001030193BA
:10205000019B25F0030303F1804303F580339F6860
:1020600027EA0808234FB8420ED007F58067B84228
:102070000CD007F58067B8420AD007F58067B842F0
:1020800014BF0427032704E0002702E0012700E033
:10209000022707FA0CF747EA08079F60164B16F469
:1020A000803F1F6814BF174397431F605F6816F493
:1020B000003F14BF174397435F609F6816F4801F6B
:1020C00014BF174397439F6016F4001FDE6814BFC8
:1020D000324326EA0202DA600135102D7FF450AF58
:1020E00002B0BDE8F08100BF0000211000003110F7
:1020F00000100240000801400004014083681942BA
:102100000CBF00200120704702B90904016170472B
:10211000064B0022DA61064B1A6942F004021A618A
:102120001A6942F040021A61704700BF980200200D
:1021300000200240064B0022DA61064B1A6942F089
:1021400002021A6158611A6942F040021A6170472E
:1021500098020020002002402DE9F041234E054660
:10216000337E0F46012B3ED003684FF00108022B4F
:1021700086F818804CF2503010D100F07FF808B18A
:1021800001202CE0FFF7C4FF4CF2503000F076F84D
:10219000174B1A6922F004021A6120E000F06EF871
:1021A0000028EDD14FF0FF333B60AC684046EA6851
:1021B000AB6803EB82239C4211D22046FFF7BAFFA3
:1021C0004CF2503000F05AF8094B1A6922F0020222
:1021D0001A6108B13C6002E004F58064E7E700237F
:1021E0003376BDE8F0810220BDE8F081980200203E
:1021F00000200240114BDA6812F0100F1A4604D08A
:102200000F4BD96941F00201D961D368590704D550
:102210000B4BDA6942F00102DA61084BDA69D20746
:1022200008D5074AD16941F00401D161DA6922F089
:102230000102DA611422DA60704700BF0020024018
:1022400098020020064B1A69120606D5054A00209E
:102250005A6002F188325A6070470120704700BF0F
:102260000020024023016745034B00201A6942F019
:1022700080021A61704700BF0020024038B5044652
:1022800000F02EFC0546114BDA68D2070AD5611C16
:10229000F9D00CB9032038BD00F022FC401BA0424D
:1022A000F1D9F7E7DA68900644BF2022DA60DB68EC
:1022B000064AD90606D4D369DB0703D4D06810F0E8
:1022C000040002D0FFF796FF012038BD0020024035
:1022D0002DE9F0471D46204B14461A7E0646012A7A
:1022E0008946984634D001234CF2503088F8183093
:1022F000FFF7C4FF38BB012E06D0022E14BF4FF0EB
:10230000040A4FF0020A00E0B246002632012046DD
:102310002946FDF77DFF114F0023C8F81C303B69AB
:1023200080B243F001033B6129F816004CF25030B3
:10233000FFF7A4FF3B6923F001033B6118B90136A5
:10234000F3B25345E2D3002388F81830BDE8F08794
:102350000220BDE8F08700BF980200200020024064
:10236000074A00F00700D36823F4E0631B041B0C4A
:1023700043F0BF6343F4003343EA0023D360704764
:1023800000ED00E0164B70B5DB68C3F302231D1DA2
:10239000C3F10704042C28BF0424062D4FF00105C7
:1023A00005FA04F48CBF033B002305FA03F6013C55
:1023B000214001FA03F3013E3240134300284FEA63
:1023C000031305DADAB2074B00F00F001A5470BDA0
:1023D00000F16040DBB200F5614080F8003370BD71
:1023E00000ED00E014ED00E04209012300F01F00C1
:1023F00003FA00F0014B43F82200704700E100E0CF
:102400000138B0F1807F0AD2064B074AF0215860AC
:1024100082F823100020072298601A60704701207C
:10242000704700BF10E000E000ED00E0044B04281E
:102430001A680CBF42F0040222F004021A607047CE
:1024400010E000E0704708B5FFF7FCFF08BD7047DB
:10245000F7B5002704460D46019700F041FB2368BD
:1024600006469A68D20507D5A36A84F8247043F01B
:102470002003A362012083E05A68D70511D4DB6AE8
:1024800013F4700F0DD12268136899072AD4681CC1
:10249000FAD0002D52D000F023FB801BA842F2D9C5
:1024A0004CE0384B02201F68FFF774F92368364A66
:1024B0001969B7FBF0F00A401ABBD968334A0A40E1
:1024C000FAB91969324A0A40002A2ED1DB68314A2A
:1024D0001A40002A0CBF1423292300FB03F7019B99
:1024E000BB4228D323686FF012021A60A26A42F43A
:1024F0000072A2629B6803F46023B3F5602F31D1B0
:102500002EE01969224A0A401AB9D968214A0A40BC
:102510006AB11969204A0A405AB9DB681E4A1A4052
:10252000002A0CBF5423FC23D7E72923D5E75423E3
:10253000D3E7FC23D1E76B1C0ED045B9A36A032077
:1025400043F00403A362002384F8243018E000F071
:10255000C7FA801BA842F1D8019B01330193BEE763
:10256000E3680BB100200BE0A36A23F48073A3623D
:10257000A06A10F48050F5D1A36A43F00103A3626E
:1025800003B0F0BDD00000202449922424499200D9
:102590009224491292244900499224000368D86C7D
:1025A000704770477047036810B55A680446900634
:1025B00027D51A68910724D5A26AD20603D4A26A45
:1025C00042F40072A2629A6802F46022B2F5602FAF
:1025D00010D1E26872B95A6822F020025A60A36AE8
:1025E00023F48073A362A36ADB0403D4A36A43F0D9
:1025F0000103A3622046FFF7D4FF23686FF01202A5
:102600001A6023685A68100630D51A6851072DD50C
:10261000A26AD20603D4A26A42F40052A2629A6865
:1026200002F4E042B2F5E04F0AD05A68500516D4E1
:102630009A6802F46022B2F5602F10D1E26872B994
:102640005A6822F080025A60A36A23F48053A3627E
:10265000A36AD90503D4A36A43F00103A362204609
:10266000FFF7F5FE23686FF00C021A6023685A68C2
:1026700052060DD51B68DB070AD5A36A204643F432
:102680008033A362FFF78EFF23686FF001021A60A8
:1026900010BD00002DE9F3410023019390F8243090
:1026A000012B00F0B8804C680123062C80F8243000
:1026B0000A6803681BD85E6B4FF4787C9CFAACFC0C
:1026C0004FF47877BCFA8CFC013C97FAA7F704FB2F
:1026D0000CFCB7FA87F77C434FF01F0808FA0CFC94
:1026E00002FA04F426EA0C0634435C6336E00C2C50
:1026F0004FF4787519D8D3F830C095FAA5F54FF492
:102700007877B5FA85F5073C97FAA7F76543B7FAE6
:1027100087F77C434FF01F0808FA05F502FA04F426
:102720002CEA05052C431C6318E0D3F82CC095FA5D
:10273000A5F54FF47877B5FA85F50D3C97FAA7F72C
:102740006543B7FA87F77C434FF01F0808FA05F591
:1027500002FA04F42CEA05052C43DC62092A4FF046
:102760003804896818D9D3F80CC094FAA4F438272F
:10277000B4FA84F4A2F10A0597FAA7F76C43B7FA02
:1027800087F77D434FF0070808FA04F4A9402CEAC4
:1027900004042143D96014E01F6994FAA4F4382694
:1027A000B4FA84F496FAA6F6B6FA86F6544356437B
:1027B0004FF0070C0CFA04F4B14027EA040421435B
:1027C0001961A2F11001012901D900231EE0144969
:1027D0008B4216D199680902F7D49968102A41F4FE
:1027E00000019960F1D10F4B1A680F4BB2FBF3F364
:1027F0000A2253430193019B002BE6D0019B013B2E
:10280000F8E7836A43F0200383620123002280F803
:102810002420184600E0022002B0BDE8F08100BF8D
:1028200000240140D000002040420F0073B5002377
:102830000193036804469A68D20701D5002026E078
:102840009A6842F001029A60124B1A68124BB2FB6E
:10285000F3F30193019B13B1019B013BF9E700F0F6
:102860003FF9064623689B6813F00105E6D100F0A6
:1028700037F9801B0228F5D9A36A84F8245043F065
:102880001003A362E36A012043F00103E36202B094
:1028900070BD00BFD000002040420F0090F82430EF
:1028A00010B5012B04463CD0012380F82430FFF7FB
:1028B000BDFF002831D1A36A23F4407323F0010344
:1028C00043F48073A362A36A23F48013A362236892
:1028D0005A68520505D5A26A22F4405242F4805249
:1028E000A262A26A002012F4805218BFE26A84F841
:1028F000240018BF22F00602E2626FF002021A60A2
:102900009A6802F46022B2F5602F9A680CBF42F414
:10291000A00242F480129A6010BD002384F8243093
:1029200010BD022010BD38B5036804469A68D2076E
:1029300001D4002038BD9A6822F001029A6000F0AC
:10294000CFF8054623689B68DB07F2D500F0C8F88E
:10295000401B0228F6D9A36A012043F01003A362AA
:10296000E36A43F00103E36238BD000038B5044672
:10297000002800F08980836A23B9C36280F824307C
:10298000FEF73CFB2046FFF7CEFFA36A13F0100FC3
:10299000A36A76D1002874D123F4885323F002036C
:1029A00043F00203A3620225E36895FAA5F5B5FAA0
:1029B00085F503FA05F5E16962680A4342EA050014
:1029C000A268B2F5807F05D0012A14BF00214FF420
:1029D000807100E011466569012D15D163B94FF48E
:1029E000604595FAA5F5A369B5FA85F5013BAB40BD
:1029F00041F40061194307E0A36A43F02003A36296
:102A0000E36A43F00103E3622368B2F5807F5D6807
:102A100025F4694541EA050159609D681B4905EAAD
:102A2000010140EA0101996001D0012A0AD14FF465
:102A3000700292FAA2F22169B2FA82F2013901FA25
:102A400002F200E00022D96A21F470010A43DA623E
:102A50009A680F4B1340834208D10020E062A36ABA
:102A600023F0030343F00103A36238BDA36A23F0FC
:102A7000120343F01003A362E36A43F00103E3622D
:102A800002E043F01003A362012038BDFDF7E1FF2F
:102A9000FE0E1FFF10B50446FFF726FA4FF47A73B7
:102AA000B0FBF3F0FFF7ACFC4FF0FF302146002203
:102AB000FFF768FC002010BD08B50320FFF750FCAD
:102AC0000020FFF7E7FFFEF753FA002008BD0000E3
:102AD000024B1A6801321A60704700BF00010020E3
:102AE000014B1868704700BF0001002013B501902A
:102AF000FFF7F6FF0446FFF7F3FF019B001B984228
:102B0000F9D302B010BD0000002100F004B80D4B55
:102B10005B58435004310C480C4B42189A42FFF466
:102B2000F6AF0B4A00F003B8002342F8043B094B10
:102B30009A42FFF4F9AFFEF7B9F900F00FF8FEF78B
:102B400009FB7047282C000800000020D40000205A
:102B5000D8000020B8020020FFF7FEBF70B50E4B72
:102B60000E4D0024ED1AAD101E46AC4204D056F8AE
:102B7000242090470134F8E700F016F8084D094B7F
:102B80000024ED1AAD101E46AC4204D056F82420A5
:102B900090470134F8E770BD202C0008202C000875
:102BA000242C0008202C0008F8B500BFF8BC08BC95
:102BB0009E467047F8B500BFF8BC08BC9E467047FB
:102BC00002030405060708090A0B0C0D0E0F10106E
:102BD0000102030405060708090A0B0C0D0E0F106D
:102BE000690C0008110C0008B90B0008610B000803
:102BF000090B0008B10A0008590A0008010A000878
:102C0000A9090008510900080000000000000000A8
:102C10000102030406070809000000000102030482
:042C2000F5010008B2
:042C2400D1010008D2
:102C28000000000000000000000001080100000092
:102C380000000108600978097709690968095409D9
:102C480053093F093E092709260909090809EE0819
:102C5800ED08CA08C908A0089F08880887086D08F1
:102C68006C08490848082B082A0819081808070892
:102C78000608E907E807D107D007B007AF078F07AD
:102C88008E077A07790762076107440743072C070D
:102C98002B072F072E0711071007DB06DA06D506C4
:102CA800D406D206D106B706B60687068606690692
:102CB800680660065F064E064D063606350615069A
:102CC8001406FA05F905DF05DE05BE05BD059705FD
:102CD800960570056F055505540540053F052B05FC
:102CE8002A0510050F054605000045051B00630071
:042CF80000366E0133
:0400000508002B09BB
:00000001FF
